:10000000F8FF002011040000B7620000B762000092
:10001000B7620000B7620000B7620000B76200007C
:10002000B7620000B7620000B7620000B76200006C
:10003000B7620000B7620000B7620000B76200005C
:10004000B7620000B7620000B7620000B76200004C
:10040000FFFFFFFFFFFFFFFFFFFFFFFFFEFFFFFFFD
:1004100062B609F0DDFAFEE700B5F9B00020DFF8BA
:10042000801D08800020DFF87C1D08800020DFF898
:10043000781D08800020DFF8741D08800020DFF898
:10044000701D08800020DFF86C1D08803CA8DFF8D4
:10045000681DF02202F002FB00A8DFF8601DF02208
:1004600002F0FCFA3B20DFF8581D0860DFF8500D61
:1004700000683B28C0F298802820DFF8481D0860FB
:10048000DFF8400D006802283EDBDFF8900DDFF852
:10049000301D0968502202FB0100DFF8281D0968A1
:1004A000085CFF2824D1DFF8740DDFF8141D0968FB
:1004B000502202FB0100DFF80C1D0968081810F833
:1004C000010C002814D1DFF8540DDFF8F41C096882
:1004D000502202FB0100DFF8EC1C0968081810F834
:1004E000020C002804D10020DFF8981D08800BE0E2
:1004F0000120DFF8901D0880DFF8C80C0068401E5E
:10050000DFF8C01C0860BBE72920DFF8B81C0860D2
:10051000DFF8B00C00684F283EDADFF8000DDFF896
:10052000A01C0968502202FB0100DFF8981C096832
:10053000085C002824D1DFF8E40CDFF8841C09688B
:10054000502202FB0100DFF87C1C0968081810F833
:10055000010CFF2814D1DFF8C40CDFF8641C096813
:10056000502202FB0100DFF85C1C0968081810F833
:10057000020CFF2804D10020DFF80C1D08800BE0DE
:100580000120DFF8041D0880DFF8380C0068401CEB
:10059000DFF8301C0860BBE7DFF8240C0068401E61
:1005A000DFF81C1C086061E72D20DFF8141C0860D0
:1005B000DFF80C0C00682D28C0F298802820DFF8A6
:1005C000041C0860DFF8FC0B006802283EDBDFF843
:1005D0004C0CDFF8EC1B0968502202FB0100DFF82D
:1005E000E41B0968085CFF2824D1DFF8300CDFF831
:1005F000D01B0968502202FB0100DFF8C81B096804
:10060000081810F8010C002814D1DFF8100CDFF8DE
:10061000B01B0968502202FB0100DFF8A81B096823
:10062000081810F8020C002804D10020DFF85C1C28
:1006300008800BE00120DFF8541C0880DFF8840BF1
:100640000068401EDFF87C1B0860BBE72920DFF84C
:10065000741B0860DFF86C0B00684F283EDADFF887
:10066000BC0BDFF85C1B0968502202FB0100DFF8BD
:10067000541B0968085C002824D1DFF8A00BDFF8C0
:10068000401B0968502202FB0100DFF8381B096893
:10069000081810F8010CFF2814D1DFF8800BDFF8E0
:1006A000201B0968502202FB0100DFF8181B0968B3
:1006B000081810F8020CFF2804D10020DFF8D01B26
:1006C00008800BE00120DFF8C81B0880DFF8F40A7F
:1006D0000068401CDFF8EC1A0860BBE7DFF8E00AAE
:1006E0000068401EDFF8D81A086061E71E20DFF8B6
:1006F000D01A0860DFF8C80A00681E28C0F2988087
:100700002820DFF8C01A0860DFF8B80A006802285D
:100710003EDBDFF8080BDFF8A81A0968502202FB5D
:100720000100DFF8A01A0968085CFF2824D1DFF86F
:10073000EC0ADFF88C1A0968502202FB0100DFF88E
:10074000841A0968081810F8010C002814D1DFF881
:10075000CC0ADFF86C1A0968502202FB0100DFF8AE
:10076000641A0968081810F8020C002804D1002047
:10077000DFF8641D08800BE00120DFF85C1D0880B5
:10078000DFF8400A0068401EDFF8381A0860BBE74F
:100790002920DFF8301A0860DFF8280A00684F289F
:1007A0003EDADFF8780ADFF8181A0968502202FBEF
:1007B0000100DFF8101A0968085C002824D1DFF86E
:1007C0005C0ADFF8FC190968502202FB0100DFF81F
:1007D000F4190968081810F8010CFF2814D1DFF883
:1007E0003C0ADFF8DC190968502202FB0100DFF83F
:1007F000D4190968081810F8020CFF2804D1002049
:10080000DFF8D81C08800BE00120DFF8D01C08803E
:10081000DFF8B0090068401CDFF8A8190860BBE7E2
:10082000DFF89C090068401EDFF89419086061E752
:100830000F20DFF88C190860DFF8840900680F28A2
:10084000C0F298802820DFF87C190860DFF874096E
:10085000006802283EDBDFF8C409DFF86419096884
:10086000502202FB0100DFF85C190968085CFF28D0
:1008700024D1DFF8A809DFF848190968502202FBE3
:100880000100DFF840190968081810F8010C002869
:1008900014D1DFF88809DFF828190968502202FB13
:1008A0000100DFF820190968081810F8020C002868
:1008B00004D10020DFF8B81D08800BE00120DFF82C
:1008C000B01D0880DFF8FC080068401EDFF8F4184F
:1008D0000860BBE72920DFF8EC180860DFF8E408BF
:1008E00000684F283EDADFF83409DFF8D4180968C9
:1008F000502202FB0100DFF8CC180968085C0028D0
:1009000024D1DFF81809DFF8B8180968502202FB73
:100910000100DFF8B0180968081810F8010CFF286A
:1009200014D1DFF8F808DFF898180968502202FBA4
:100930000100DFF890180968081810F8020CFF2869
:1009400004D10020DFF82C1D08800BE00120DFF827
:10095000241D0880DFF86C080068401CDFF864186C
:100960000860BBE7DFF858080068401EDFF8501841
:10097000086061E70120DFF848180860DFF84008E8
:1009800000680128C0F298802820DFF83818086035
:10099000DFF83008006802283EDBDFF88008DFF867
:1009A00020180968502202FB0100DFF818180968B6
:1009B000085CFF2824D1DFF86408DFF80418096810
:1009C000502202FB0100DFF8FC170968081810F834
:1009D000010C002814D1DFF84408DFF8E417096897
:1009E000502202FB0100DFF8DC170968081810F834
:1009F000020C002804D10020DFF87C1C08800BE0EA
:100A00000120DFF8741C0880DFF8B8070068401E7A
:100A1000DFF8B0170860BBE72920DFF8A8170860E7
:100A2000DFF8A00700684F283EDADFF8F007DFF8AC
:100A300090170968502202FB0100DFF88817096847
:100A4000085C002824D1DFF8D407DFF874170968A0
:100A5000502202FB0100DFF86C170968081810F833
:100A6000010CFF2814D1DFF8B407DFF85417096828
:100A7000502202FB0100DFF84C170968081810F833
:100A8000020CFF2804D10020DFF8E01D08800BE0F5
:100A90000120DFF8D81D0880DFF828070068401C17
:100AA000DFF820170860BBE7DFF814070068401E76
:100AB000DFF80C17086061E73720DFF804170860DB
:100AC000DFF8FC0600680B28C0F2DE810120DFF8A9
:100AD000F4160860DFF8EC060068282880F28780AA
:100AE000DFF83807DFF8D8160968502202FB01004A
:100AF000DFF8D0160968085C002870D1DFF81C0701
:100B0000DFF8BC160968502202FB0100DFF8B416BA
:100B1000096808184078002861D1DFF80007DFF87D
:100B2000A0160968502202FB0100DFF89816096838
:100B300008188078002852D1DFF8E006DFF8801628
:100B40000968502202FB0100DFF8781609680818CE
:100B5000C078002843D1DFF8C406DFF864160968BE
:100B6000502202FB0100DFF85C160968081890F8B3
:100B70005000FF2833D1DFF8A406DFF844160968D7
:100B8000502202FB0100DFF83C160968081890F8B3
:100B90005100FF2823D1DFF88406DFF82416096806
:100BA000502202FB0100DFF81C160968081890F8B3
:100BB0005200FF2813D1DFF86406DFF80416096835
:100BC000502202FB0100DFF8FC150968081890F8B4
:100BD0005300FF2803D10120DFF8CC150880DFF88F
:100BE000E4050068401CDFF8DC15086072E7282087
:100BF000DFF8D0150860DFF8CC0500684F2880F2D8
:100C00008780DFF81806DFF8B8150968502202FB64
:100C10000100DFF8B0150968085C002870D1DFF822
:100C2000FC05DFF89C150968502202FB0100DFF883
:100C30009415096808184078002861D1DFF8DC05B0
:100C4000DFF87C150968502202FB0100DFF87415FB
:100C5000096808188078002852D1DFF8C005DFF84D
:100C600060150968502202FB0100DFF85815096879
:100C70000818C078002843D1DFF8A005DFF8401538
:100C80000968502202FB0100DFF8381509680818CE
:100C900090F85000FF2833D1DFF88005DFF82015E9
:100CA0000968502202FB0100DFF8181509680818CE
:100CB00090F85100FF2823D1DFF86005DFF8001518
:100CC0000968502202FB0100DFF8F81409680818CF
:100CD00090F85200FF2813D1DFF84005DFF8E01448
:100CE0000968502202FB0100DFF8D81409680818CF
:100CF00090F85300FF2803D10120DFF8B0140880DA
:100D0000DFF8C0040068401CDFF8B814086072E720
:100D10000120DFF8B0140860DFF8A80400684F284D
:100D200080F2AA80DFF8F404DFF8941409685022F6
:100D300002FB0100DFF88C140968085C002842D12E
:100D4000DFF8D804DFF878140968502202FB0100AC
:100D5000DFF87014096808188078FF2833D1DFF8AD
:100D6000BC04DFF85C140968502202FB0100DFF8C4
:100D700054140968081810F8020C002823D1DFF871
:100D80009C04DFF83C140968502202FB0100DFF8E4
:100D900034140968081810F8A00C002813D1DFF8E3
:100DA0007C04DFF81C140968502202FB0100DFF804
:100DB00014140968081890F8A000FF2803D1012036
:100DC000DFF8E4130880DFF85404DFF8F41309684F
:100DD000502202FB0100DFF8EC130968085C0028D0
:100DE00042D1DFF83804DFF8D8130968502202FB3B
:100DF0000100DFF8D013096808188078002833D183
:100E0000DFF81804DFF8B8130968502202FB01006C
:100E1000DFF8B0130968081810F8020CFF2823D176
:100E2000DFF8F803DFF898130968502202FB01008D
:100E3000DFF890130968081810F8A00C002813D1E7
:100E4000DFF8D803DFF878130968502202FB0100AD
:100E5000DFF870130968081890F8A000FF2803D184
:100E60000120DFF848130880DFF858030068401CB1
:100E7000DFF8501308604FE7DFF844030068401EB6
:100E8000DFF83C1308601BE6C7480088002806D03E
:100E9000C6480088002802D00120C54908803720B4
:100EA000C7490860C64800682D28C0F22F81282055
:100EB000C4490860C3480068022849DBDFF85C03C6
:100EC000BF490968502202FB0100BE490968085C5D
:100ED000FF2830D1DFF84403B9490968502202FBEA
:100EE0000100B8490968081810F8010C002822D13F
:100EF000CA48B3490968502202FB0100B149096898
:100F0000081810F8020C002815D1AE480068DFF868
:100F10003C1DAB4A126841F82200DFF8300DA849A9
:100F2000096850F82100DFF8281D08600020DFF86C
:100F3000241D08800CE0DFF81C0D0088401CDFF841
:100F4000141D08809F480068401E9E490860B1E754
:100F500029209C4908609B4800684F2847DAAF4821
:100F600097490968502202FB010096490968085C0C
:100F700000282FD1A94892490968502202FB01009C
:100F800090490968081810F8010CFF2822D1A348DD
:100F90008B490968502202FB01008A490968081838
:100FA00010F8020CFF2815D186480068DFF8A81C4D
:100FB000834A126841F82200DFF89C0C80490968D6
:100FC00050F82100DFF8941C08600020DFF8901C26
:100FD00008800CE0DFF8880C0088401CDFF8801CDB
:100FE000088078480068401C76490860B3E7DFF85D
:100FF000680C7349096850F82100DFF8501C704AEA
:10100000126851F82210401A142807DA0120DFF87C
:10101000441C08800120DFF8481C0880DFF8340CED
:101020000088002825D1DFF8380C0088002820D05F
:10103000DFF82C0C008803280BDA00A86049096847
:1010400050F82100DFF8101C5D4A126841F82200B8
:101050000FE000A85A49096850F82100C01CDFF8C9
:10106000F81B574A126841F822000020DFF8F01BF5
:101070000880DFF8E00B0088002825D0DFF8E00BBF
:101080000088002820D1DFF8CC0B008803280BDA79
:101090003CA84B49096850F82100DFF8B01B484ACA
:1010A000126841F822000FE03CA84549096850F851
:1010B0002100C01EDFF8941B414A126841F822004B
:1010C0000020DFF8901B0880DFF8880B00880028DC
:1010D00016D0DFF88C0B0088002811D0DFF8700BD9
:1010E0000068DFF8681B364A126841F82200DFF812
:1010F0006C0B0068DFF8601B314A126841F822006F
:101100002F480068401E2E490860CBE60120DFF81A
:10111000441B08800120DFF8481B08803020284944
:101120000860274800682D28C0F214810020254956
:10113000086024480068502880F2AC803748204975
:101140000968502202FB01001E490968085CFF285B
:1011500046D132481A490968502202FB0100194958
:101160000968081810F8010C002839D12B481449D7
:101170000968502202FB010012490968081810F89A
:10118000020C00282CD10F48006829281CDB0D48D0
:101190000068DFF8D01A0A4A126821F812001BE032
:1011A0003C29FF1F3E29FF1F4429FF1F4629FF1F1F
:1011B0004829FF1FF228FF1F589C0000489D00008F
:1011C000440FFF1F480FFF1F2820DFF8981ADFF891
:1011D000982A126821F812000020DFF8781A088097
:1011E0000E48DFF8841A0968502202FB0100DFF87C
:1011F0005C1D0968085C00283CD10848DFF8681AC3
:101200000968502202FB0100DFF8401D0968081838
:1012100010F8010CFF282DD1004801E08815FF1FB0
:10122000DFF8441A0968502202FB0100DFF81C1D98
:101230000968081810F8020CFF281BD1DFF80C0D04
:10124000006828280ADADFF8040D0068DFF81C1AA5
:10125000DFF8142A126821F8120007E02820DFF8CE
:101260000C1ADFF8042A126821F812000020DFF8B7
:10127000F0190880DFF8D40C0068401CDFF8CC1CA3
:10128000086056E70629FF1F0429FF1F0A29FF1FD0
:101290000829FF1FDFF8BC09008800280CD0DFF800
:1012A000C0090088002807D10020DFF8B819DFF84E
:1012B000B829126821F81200DFF898090088002880
:1012C0000CD1DFF89C090088002807D04F20DFF8F8
:1012D0009C19DFF89429126821F81200DFF86C09D4
:1012E000DFF88419096850F82100DFF87819DFF871
:1012F0007829126831F8121010FA81F0022190FB5F
:10130000F1F0DFF84819DFF86029126841F822008F
:10131000DFF84409DFF85019096850F82100DFF8B8
:101320004C19DFF84429126831F8121010FA81F0D4
:10133000022190FBF1F0DFF82019DFF82C29126868
:1013400041F82200DFF820090068401EDFF8181974
:101350000860E6E62C20DFF810190860DFF80809BD
:1013600000680A28C0F27E83DFF8E008DFF8F8188A
:10137000096810EB810040680838DFF8D01B08606E
:10138000DFF8C80B0068DFF8C418DFF8DC28126843
:1013900011EB820149680831884280F2B080DFF8A1
:1013A000AC08DFF8C418096810EB81004068072812
:1013B00008DA0720DFF89418DFF8AC28126811EB80
:1013C00082014860DFF8880BDFF89C18096850221A
:1013D00002FB0100DFF87418DFF88C28126811EBAB
:1013E00082014968081810F8060C002837D1DFF888
:1013F000600BDFF874180968502202FB0100DFF867
:101400004C18DFF86428126811EB82014968085C07
:10141000002824D1DFF8380BDFF84C180968502277
:1014200002FB0100DFF82418DFF83C28126811EBFA
:101430008201496808188079002810D10120DFF85E
:10144000141B0870DFF80408DFF81C18096810EB9B
:10145000810040680C30DFF8F41A08604FE0DFF8D4
:10146000F00ADFF804180968502202FB0100DFF8D7
:10147000DC1A0968085CFF2832D1DFF8D40ADFF8EB
:10148000E8170968502202FB0100DFF8C01A09685A
:10149000081810F8010C002822D1DFF8B40ADFF890
:1014A000C8170968502202FB0100DFF8A01A09687A
:1014B000081810F8020C002812D1DFF8900A006812
:1014C000DFF88817DFF8A027126841F82200002013
:1014D000DFF88017088012E00E29FF1F0C29FF1F7C
:1014E000DFF870070088401CDFF868170880DFF815
:1014F0005C0A0068401CDFF8541A086040E7DFF817
:101500005807DFF86417096810EB81004068083855
:10151000DFF8381A0860DFF8340A0068DFF8381797
:10152000DFF84427126811EB8201496808318842CC
:1015300080F2B380DFF82007DFF82C17096810EB82
:10154000810040684A2808DB4920DFF80C17DFF8E3
:101550001827126811EB82014860DFF8F409DFF800
:1015600008170968502202FB0100DFF8EC16DFF8CB
:10157000F826126811EB82014968081810F8060C69
:10158000002837D1DFF8C809DFF8DC1609685022D7
:1015900002FB0100DFF8C016DFF8CC26126811EB61
:1015A00082014968085C002824D1DFF8A409DFF82B
:1015B000B8160968502202FB0100DFF89C16DFF81C
:1015C000A826126811EB8201496808188079002862
:1015D00010D10120DFF87C190870DFF87C06DFF8F5
:1015E0008816096810EB810040680C30DFF85C1940
:1015F000086052E0DFF85809DFF86C1609685022DD
:1016000002FB0100DFF844190968085C002835D1A5
:10161000DFF83C09DFF850160968502202FB010090
:10162000DFF828190968081810F8010CFF2825D1DF
:10163000DFF81C09DFF830160968502202FB0100B0
:10164000DFF808190968081810F8020CFF2815D1EE
:10165000DFF8F8080068DFF80016DFF80C261268DB
:1016600041F822000020DFF8F815088015E000BFDF
:101670001229FF1F1029FF1F1629FF1FDFF8E005A1
:101680000088401CDFF8D8150880DFF8C008006823
:10169000401CDFF8B81808603DE7DFF8B80500889F
:1016A00000287AD0DFF8B8050088002875D1DFF867
:1016B000A405008803280FDADFF89005DFF8A815E5
:1016C000096810EB81004068DFF88015DFF8982585
:1016D000126841F8220006E1DFF878050088052845
:1016E000C0F20181DFF86808DFF87C150968502234
:1016F00002FB010090F8460000283CD1DFF85008BA
:10170000DFF864150968502202FB010090F83C00E4
:10171000002830D1DFF83808DFF84C15096850226E
:1017200002FB010090F83200002824D1DFF82008E5
:10173000DFF834150968502202FB010090F82800F8
:10174000002818D1DFF80405DFF81C15096850F8E7
:101750002100282880F2C7803CA8DFF80C15096812
:1017600050F82100401DDFF8E414DFF8FC24126873
:1017700041F82200B7E03CA8DFF8EC14096850F803
:101780002100DFF8C814DFF8E024126841F82200D5
:101790000020DFF8C0140880A5E0DFF8B804008856
:1017A000002877D1DFF8B8040088002872D0DFF86D
:1017B000B004008803280DDA00A8DFF8AC1409682B
:1017C00050F82100DFF89014DFF89C24126841F8EB
:1017D000220088E0DFF8880400880528C0F28380B2
:1017E000DFF86C07DFF880140968502202FB010063
:1017F000807A00283CD1DFF85807DFF86C140968BC
:10180000502202FB0100007D002831D1DFF84007A3
:10181000DFF854140968502202FB0100807F002881
:1018200026D1DFF82C07DFF840140968502202FBAC
:10183000010090F8280000281AD1DFF81C04DFF816
:101840002814096850F8210029284CDB00A8DFF88B
:101850001814096850F82100401DDFF8FC13DFF868
:101860000824126841F822003DE000BF1429FF1F40
:1018700000A8DFF8F413096850F82100DFF8D81346
:10188000DFF8E423126841F822000020DFF8D013CB
:10189000088028E0DFF8BC030088002823D0DFF8A8
:1018A000C003008800281ED0DFF8C4090088002883
:1018B00019D13CA8DFF8B013096850F82100DFF80F
:1018C0008C13DFF8A423126841F8220000A8DFF887
:1018D0009813096850F82100DFF87C13DFF888239B
:1018E000126841F82200DFF86C060078012840F009
:1018F000B3802820DFF854160860DFF8500600682F
:1019000002284BDBDFF84806DFF85C130968502239
:1019100002FB0100DFF834160968085CFF2830D1AB
:10192000DFF82C06D0490968502202FB0100DFF8DD
:101930001C160968081810F8010C002821D1DFF8DE
:101940001006C9490968502202FB0100DFF8FC15A6
:101950000968081810F8020C002812D1DFF8EC050D
:101960000068BA49C04A126841F82200B748BE4927
:10197000096850F82100B64908600020B549088080
:101980000CE0B4480088401CB2490880DFF8BC0570
:101990000068401EDFF8B4150860AEE72920DFF8C4
:1019A000AC150860DFF8A40500684F284ADADFF8B4
:1019B000A005AD490968502202FB0100DFF88C1533
:1019C0000968085C002830D1DFF88405A649096859
:1019D000502202FB0100DFF874150968081810F89E
:1019E000010CFF2821D1DFF868059F4909685022C2
:1019F00002FB0100DFF854150968081810F8020C02
:101A0000FF2812D1DFF8440500689349964A12680E
:101A100041F8220090489449096850F821008F4904
:101A2000086000208E4908800CE08D480088401C2A
:101A30008B490880DFF814050068401CDFF80C159E
:101A40000860AFE7002083490880002084490880AF
:101A50000020DFF80015087083480068401E8249A6
:101A600008607BE40020DFF80C1808800020DFF815
:101A7000081808800020DFF8041808800020DFF82C
:101A8000C01B08800020DFF8C01D08800020DFF8A0
:101A9000B41B08800020DFF8E81708800020DFF87A
:101AA000A81B08800020DFF8DC1708800020DFF882
:101AB000D81708800020DFF8941B08800020DFF88A
:101AC000CC1708800020DFF8C81708800020DFF856
:101AD000C41708800020DFF8C0170880DFF89007DF
:101AE0000088002826D1DFF8980DB0F90000002802
:101AF00020D0DFF8900DB0F9000000281AD0DFF8F0
:101B00009C07B0F90000002814D0DFF87C0DB0F974
:101B1000000000280BD0DFF8740DB0F90000002899
:101B200005D0DFF87C07B0F90000002802D100F0F2
:101B30009FF82AE0DFF838070088002825D1DFF871
:101B4000480DB0F9000000281FD0DFF8400DB0F9B3
:101B50000000002819D0DFF84807B0F9000000287D
:101B600013D0DFF81C0DB0F9000000280BD0DFF80F
:101B7000140DB0F90000002805D0DFF82007B0F9F7
:101B80000000002801D100F0E7F900F08FFB3720BA
:101B900035490860344800680A2854DB2B4832492C
:101BA000096850F821002C492F4A126851F8221078
:101BB0000818022190FBF1F0DFF8E8162A4A1268B3
:101BC00021F81200DFF8DC062749096830F8110017
:101BD0002838DFF8D416244A126821F81200DFF8FA
:101BE000700321490968502202FB0100DFF8B41696
:101BF0001D4A126831F81210081800214170D448AB
:101C000019490968502202FB0100DFF89816164AAC
:101C1000126831F8121000220A54CD48124909689E
:101C2000502202FB0100DFF87C160F4A126831F8DF
:101C300012100818002100F8011C0B480068401E13
:101C400009490860A6E779B000BD00002C11FF1F0C
:101C50001C12FF1F0029FF1F2012FF1F1013FF1F60
:101C60000229FF1F4C0FFF1F440FFF1FC40FFF1F50
:101C70005020DFF81C1C0860DFF8140C00681028E6
:101C800067DB3C20B1490860B0480068032858DB96
:101C9000AF48DFF8FC1B0968502202FB0100AB498A
:101CA0000968085C002846D1A948DFF8E41B0968E8
:101CB000502202FB0100A5490968081810F8020C1F
:101CC000002838D1A248DFF8C81B0968502202FB5F
:101CD00001009E49096808188078FF282BD19C488C
:101CE000DFF8AC1B0968502202FB01009749096824
:101CF000081810F8A00CFF281DD19548DFF8901B9C
:101D00000968502202FB010090490968081890F800
:101D1000A000FF280FD1DFF8780B0068DFF8741BF4
:101D200008808A480068DFF8701B08800120DFF80F
:101D30004415088005E085480068401E8349086016
:101D4000A2E7DFF84C0B0068401EDFF8441B086078
:101D500092E7DFF820050088012840F0F680DFF8E0
:101D6000340BB0F900000F38DFF8241B0860DFF8EF
:101D7000200B006801286FDBDFF81C0BB0F90000B6
:101D8000401C72490860714800684F285CDA70484E
:101D9000DFF8FC1A0968502202FB01006B49096850
:101DA000085C002842D16A48DFF8E41A096850222A
:101DB00002FB010065490968081810F8020CFF28A9
:101DC00034D16348DFF8C81A0968502202FB0100C9
:101DD0005E49096808188078FF2827D15C48DFF839
:101DE000B01A0968502202FB010058490968081816
:101DF00010F8A00C002819D15548DFF8941A09688A
:101E0000502202FB010051490968081890F8A0000F
:101E1000FF280BD1DFF8780A0068DFF8801A088005
:101E20004A480068DFF8781A08800DE00120DFF8E2
:101E30006C1A08804F20DFF8681A08804348006851
:101E4000401C424908609EE7DFF8440A0068401ED3
:101E5000DFF83C1A08608AE7DFF8440AB0F90000AE
:101E6000DFF8341AB1F90010401ADFF8281AB1F976
:101E70000010DFF8282AB2F90020891A90FBF1F04F
:101E800000EE100AB8EEC00ADFF8180A80ED000A6A
:101E9000DFF80C0AB0F90000DFF8FC19B1F9001006
:101EA0000818022190FBF1F000EE100AB8EEC00A0B
:101EB000DFF8E809B0F90000DFF8D819B1F900102F
:101EC0000818022190FBF1F000EE900AF8EEE00A0B
:101ED000DFF8D00990ED001A00EEC10ADFF8C8095A
:101EE00080ED000ADFF8B409B0F90000DFF8A019AE
:101EF0000860DFF89C090068DFF89819B1F9001054
:101F0000884222DADFF8880990ED000AB8EEC00AAC
:101F1000DFF89009D0ED000ADFF88C0990ED001A87
:101F200000EE201ABDEEC10ADFF88009DFF8601963
:101F3000096810EB810080ED000ADFF854090068A1
:101F4000401CDFF84C190860D3E77047480FFF1FAB
:101F50008815FF1F5A29FF1F5020DFF83419086029
:101F6000DFF82C090068102875DB5020DFF84019D5
:101F70000860DFF83C090068152864DBDFF83409E5
:101F8000DFF80C190968502202FB0100DFF8201964
:101F90000968085C00284ED1DFF81809DFF8F0184E
:101FA0000968502202FB0100DFF8041909680818CB
:101FB00090F8F000FF283ED1DFF8F808DFF8D018DD
:101FC0000968502202FB0100DFF8E41809680818CC
:101FD00010F8F00CFF282ED1DFF8D808DFF8B01881
:101FE0000968502202FB0100DFF8C41809680818CC
:101FF00010F8030CFF281ED1DFF8B808DFF890189E
:102000000968502202FB0100DFF8A41809680818CB
:10201000C07800280FD1DFF878080068DFF898183A
:102020000880DFF88C080068DFF89018088001202D
:102030009149088007E0DFF878080068401EDFF863
:102040007018086095E7DFF848080068401EDFF860
:102050004018086084E788480088012840F006811D
:10206000DFF85408B0F900000F38DFF824180860D2
:10207000DFF81C0800680428C0F27F80DFF83C0805
:10208000B0F90000401EDFF828180860DFF82008CB
:102090000068042869DBDFF81C08DFF8F41709681A
:1020A000502202FB0100DFF808180968085C0028CC
:1020B0004BD1DFF80008DFF8D8170968502202FB7F
:1020C0000100DFF8EC170968081810F8F00C002878
:1020D0003BD1DFF8E007DFF8B8170968502202FBB0
:1020E0000100DFF8CC170968081890F8F000FF2805
:1020F0002BD1DFF8C007DFF898170968502202FBE0
:102100000100DFF8AC170968081810F8030CFF2865
:102110001BD1DFF8A007DFF878170968502202FB0F
:102120000100DFF88C1709680818C078FF280CD167
:10213000DFF85C070068DFF8B4180880DFF8700784
:102140000068DFF8AC1808800FE00120DFF89C1869
:1021500008800120DFF898180880DFF8540700682D
:10216000401EDFF84C17086090E7DFF8240700688E
:10217000401EDFF81C1708607AE7DFF84007B0F967
:102180000000DFF86C18B1F90010401ADFF82817CA
:10219000B1F90010DFF85428B2F90020891A90FB39
:1021A000F1F000EE100AB8EEC00ADFF8480880ED42
:1021B000000ADFF80807B0F90000DFF83418B1F9B9
:1021C00000100818022190FBF1F000EE100AB8EEA2
:1021D000C00ADFF81808B0F90000DFF8DC16B1F922
:1021E00000100818022190FBF1F000EE900AF8EEC2
:1021F000E00ADFF8000890ED001A00EEC10ADFF8EF
:10220000F80780ED000ADFF8B006B0F90000DFF84B
:1022100080160860DFF8D407B0F90000DFF8701608
:102220000968884222DADFF8680690ED000AB8EE05
:10223000C00ADFF8C007D0ED000ADFF8BC0790ED58
:10224000001A00EE201ABDEEC10ADFF8B007DFF871
:102250004016096810EB810080ED000ADFF83006B7
:102260000068401EDFF828160860D3E770470000BA
:102270004A29FF1F4029FF1F4229FF1F2829FF1F4E
:102280003029FF1F4E29FF1F5029FF1F3429FF1F30
:102290003629FF1F3829FF1F3A29FF1F0C29FF1F6E
:1022A0000E29FF1F3C10FF1FB410FF1F0F20DFF887
:1022B000E0150860DFF8D80500683C2861DA0020E6
:1022C000DFF8EC150860DFF8E8050068282850DA28
:1022D000DFF8E005DFF8B8150968502202FB0100BD
:1022E000DFF8CC150968085C00283AD1DFF8C4058E
:1022F000DFF89C150968502202FB0100DFF8B015D9
:102300000968081810F8020C00282AD1DFF8A40583
:10231000DFF87C150968502202FB0100DFF89015F8
:10232000096808188078FF281BD1DFF88805DFF8D6
:1023300060150968502202FB0100DFF87415096876
:10234000081810F8A00CFF280BD1DFF8440500682E
:10235000DFF8B0160880DFF858050068B849088033
:1023600007E0DFF84C050068401CDFF84415086002
:10237000A9E7DFF81C050068401CDFF814150860A9
:1023800098E70F20DFF808150860DFF804050068FB
:102390003C2861DA2820DFF818150860DFF81005FE
:1023A0000068502850DADFF80C05DFF8E4140968FB
:1023B000502202FB0100DFF8F8140968085C0028CD
:1023C0003AD1DFF8F004DFF8C8140968502202FBA4
:1023D0000100DFF8DC140968081810F8020CFF2867
:1023E0002AD1DFF8D004DFF8A8140968502202FBD4
:1023F0000100DFF8BC1409680818807800281BD198
:10240000DFF8B004DFF888140968502202FB0100ED
:10241000DFF89C140968081810F8A00CFF280BD1ED
:10242000DFF86C040068DFF820140880DFF880040F
:1024300000688449088007E0DFF874040068401CE5
:10244000DFF86C140860A9E7DFF844040068401C5A
:10245000DFF83C14086098E70A20DFF834140860BD
:10246000DFF82C0400683B286FDA0A20DFF84014FC
:102470000860DFF83C040068462860DADFF83404BE
:10248000DFF80C140968502202FB0100DFF8201469
:102490000968085C00284AD1DFF81804DFF8F01357
:1024A0000968502202FB0100DFF8041409680818CB
:1024B00010F8500C00283AD1DFF8F803DFF8D013F9
:1024C0000968502202FB0100DFF8E41309680818CC
:1024D00090F85000FF282AD1DFF8D803DFF8B013B6
:1024E0000968502202FB0100DFF8C41309680818CC
:1024F00010F8090CFF281AD1DFF8B803DFF89013A1
:102500000968502202FB0100DFF8A41309680818CB
:10251000407AFF280BD1DFF878030068DFF8E81471
:102520000880DFF88C0300684749088007E0DFF87F
:1025300080030068401CDFF87813086099E7D448EE
:102540000068401CD24908608AE7DFF8BC04B0F993
:102550000000CF490860CE48006802285CDB0520F7
:10256000D3490860D24800684B284FDADFF84403AB
:10257000C7490968502202FB0100CD490968085C7F
:1025800000283DD1DFF82C03C1490968502202FB25
:102590000100C74909680818B0F5227000780028C2
:1025A0002ED1DFF81003BA490968502202FB01005E
:1025B000BF4909680818B0F51E70007800281FD1BF
:1025C000DFF8F002B2490968502202FB0100B84965
:1025D0000968081890F87802002811D1DFF8D402B1
:1025E000AB490968502202FB0100B149096808188B
:1025F00090F88802002803D101201449088005E0E2
:10260000AB480068401CAA490860ABE7A0480068D6
:10261000401E9F4908609EE7DFF8EC03B0F9000018
:10262000012815DB0848B0F90000012810DB074835
:10263000008800280CD00120DFF8D013088013E0B8
:102640002A29FF1F2E29FF1F3229FF1F5229FF1F92
:102650000020DFF8B41308800020DFF8B4130880EE
:102660000020DFF8A8130880DFF8A80300880028FE
:102670001FD1DFF89003B0F90000002819D0DFF86F
:102680009803B0F90000002813D06F48B0F900009B
:1026900000280ED0DFF88403B0F90000002808D02D
:1026A000DFF868030088002803D00120DFF86413F6
:1026B0000880DFF860030088012840F0C780DFF859
:1026C0004403B0F90000002805D0DFF84C03B0F94E
:1026D000000000280AD15C48B0F9000000280AD0A8
:1026E000DFF83803B0F90000002804D0DFF81C033D
:1026F000008800281DD16448B0F90000002800F0CF
:10270000A5805F48B0F90000002800F09F805F4876
:10271000B0F90000002800F099805A48B0F9000094
:10272000002800F09380DFF8E4020088002800F021
:102730008D80DFF8D002B0F90000002805D0DFF866
:10274000D802B0F90000002807D13C20DFF8B4120D
:1027500008802820DFF8C0120880DFF8B402B0F942
:102760000000DFF8B412B1F90010401ADFF8981237
:10277000B1F90010DFF88C22B2F90020891A90FB21
:10278000F1F000EE100AB8EEC00ADFF8940280ED16
:10279000000ADFF87C02B0F90000DFF87C12B1F922
:1027A00000100818022190FBF1F000EE100AB8EEBC
:1027B000C00ADFF85002B0F90000DFF84C12B1F99E
:1027C0000010081800EE900AF8EEE00ADFF8500258
:1027D00090ED001A60EE810AB0EE001AC0EE810A98
:1027E00030EE600ADFF83C0280ED000ADFF81802E4
:1027F000B0F900002649086025480068DFF8041297
:10280000B1F90010491C884220DA214890ED000AF5
:10281000B8EEC00ADFF80802D0ED000ADFF80402C3
:1028200090ED001A00EE201ABDEEC10A1F481849AB
:10283000096810EB810080ED000A15480068401C13
:1028400013490860D8E700BF2C29FF1FDFF8C40137
:102850000088012806D1DFF8D0010088401EDFF88B
:10286000C8110880DFF8C0010088012807D10020C6
:10287000DFF8A0110880C820DFF8AC11088070478D
:102880000429FF1F0829FF1F0629FF1F0A29FF1F10
:10289000440FFF1F1829FF1F1A29FF1F1C29FF1FA4
:1028A0001E29FF1F1413FF1F1813FF1F2C11FF1FDA
:1028B000480FFF1F8815FF1F2029FF1F2229FF1F18
:1028C00037205A490860594800680B28C0F28380B5
:1028D00057485649096850F8210010F10F0F06DAE1
:1028E0007FF00E005249514A126841F822004348D5
:1028F0004E49096850F82100602805DB5F203F49F8
:102900004A4A126841F822004A484849096830F8A2
:102910001100502805DB4F204649444A126821F82F
:10292000120044484149096830F81100002805D1D7
:10293000012040493D4A126821F812003D483B49B8
:10294000096830F811003B49384A126811EB42011E
:102950004988401A0B280BDB36483449096810EBCC
:1029600041004088401D3349304A126821F8120066
:1029700030482E49096830F811002E492B4A126858
:1029800011EB42014988401A0A280CDA29482749E4
:10299000096810EB41004088401F2649234A12680D
:1029A00011EB4201488023482049096830F81100A2
:1029B000283800EE100AB8EEC00A1F48D0ED000A11
:1029C00030EE200A1C4880ED000A18480068401EBE
:1029D0001649086077E7184890ED000ADFED080A0D
:1029E00080EE200A144880ED000A70472429FF1F5A
:1029F0002629FF1F1C13FF1F2013FF1F2012FF1F7C
:102A0000000034422829FF1F3029FF1F4C29FF1FD7
:102A10003229FF1F4A29FF1F2A29FF1F2E29FF1FC6
:102A20002413FF1F2813FF1F4C04FF1F440FFF1F19
:102A30002C11FF1F3C10FF1F5028FF1F62B38B0794
:102A400008D0521E11F8013B00F8013B00F0248031
:102A50008B07F6D1830740F0208000BF103A07D3E0
:102A600030B4B1E83810103AA0E83810F9D230BCD0
:102A7000530724BFB1E80810A0E8081044BF51F87C
:102A8000043B40F8043BD20724BF31F8022B20F866
:102A9000022B44BF0B7803707047083A07D3B1E8A4
:102AA0000810083A40F8043B40F804CBF7D253072B
:102AB000E4E750F8041B61B150F8042BD30744BF7E
:102AC000A9F101039A180023091F42F8043BFAD127
:102AD000EFE7704780B501220021812001F0C8FD99
:102AE00040F20311812001F095FE01220021852092
:102AF00001F0BEFD40F20311852001F08BFE0122A2
:102B00000021832001F0B4FD40F20311832001F085
:102B100081FE01220021892001F0AAFD40F203116B
:102B2000892001F077FE012200218B2001F0A0FD19
:102B300040F203118B2001F06DFE0122002187205D
:102B400001F096FD40F20311872001F063FE01BD04
:102B500010B50400812001F039FE002803D10620C1
:102B6000207001202DE0852001F030FE002803D1E7
:102B700007202070012024E0832001F027FE002898
:102B800003D10C20207001201BE0892001F01EFEE3
:102B9000002803D109202070012012E08B2001F0D1
:102BA00015FE002803D10A202070012009E08720AB
:102BB00001F00CFE002803D108202070012000E065
:102BC000002010BD80B5DFF89C0DFFF7C1FFDFF8D6
:102BD000601B0870DFF85C0B00780D2804D058D318
:102BE0000F2825D00BD354E0DFF8440B00780128E0
:102BF00003D10E20DFF83C1B0870002049E0DFF80D
:102C0000300B0078002805D10D20DFF8281B087054
:102C100000203EE00F20DFF81C1B08700020DFF8CA
:102C2000181B08600020DFF8141B0870002030E03B
:102C3000DFF8FC0A007800280ED10D20DFF8F41A26
:102C40000870DFF8F80A0078002801D0002020E0A2
:102C5000DFF8100D00781CE0DFF8DC0A0068DFF810
:102C6000E01A0968884208DADFF8CC0A0068401CDC
:102C7000DFF8C41A086000200BE00020DFF8B81A63
:102C800008600120DFF8B41A0870DFF8D80C00786B
:102C9000FFE702BD80B50020DFF8B41B08800020EC
:102CA000DFF8E41D087000F0BDF80020DFF8A41B79
:102CB0000870DFF8DC0D0078002800F0B280FFF724
:102CC00081FFDFF8C41D0870DFF8BC0D007808280C
:102CD00010D1DFF87C0B0088401CDFF8741B0880E3
:102CE000DFF86C0BB0F90000052803D10120DFF8F4
:102CF000601B0880DFF8900D007807281AD1DFF8F4
:102D0000500B0088401EDFF8481B0880DFF8400B9E
:102D1000B0F90000002803D50020DFF8341B08803C
:102D2000DFF82C0BB0F90000002803D10620DFF8F3
:102D3000201B0880DFF8500D0078072801D1012002
:102D400000E00020DFF8401D0978082901D10121A9
:102D500000E00021C0B2C9B20843002820D0DFF84B
:102D6000F00AB0F90000012806D019D303280DD0CD
:102D700007D304280FD013E001F00FFE00F06CF829
:102D80000EE001F00AFE00F081F809E001F005FE16
:102D900000F096F804E001F000FE00F0ABF8FFE769
:102DA000DFF8E40C0078062820D1DFF8A40AB0F997
:102DB0000000012806D019D303280DD007D304281A
:102DC0000FD013E001F0E9FD00F0AEF80EE001F0E5
:102DD000E4FD00F0EDFE09E001F0DFFD01F082FA14
:102DE00004E001F0DAFD01F0E1FBFFE7DFF8980C09
:102DF0000078092807D1DFF8580AB0F90000012847
:102E000001D101F0CAFDDFF8800C00780C287FF4B6
:102E100050AF0020DFF8781C0870AE2001F078FD7C
:102E200047E701BD80B5DFF8402B0021022001F00B
:102E3000DAFFDFF8382B0121022001F0D4FFDFF8A0
:102E4000302B0221022001F0CEFFDFF8882E032173
:102E5000022001F0C8FF01BD80B5DFF8182B00216A
:102E6000022001F0C0FFDFF8042B0121022001F055
:102E7000BAFFDFF8FC2A0221022001F0B4FFDFF8DC
:102E8000542E0321022001F0AEFF01BD80B5DFF812
:102E9000D82A0021022001F0A6FFDFF8DC2A012158
:102EA000022001F0A0FFDFF8C82A0221022001F071
:102EB0009AFFDFF8202E0321022001F094FF01BDCC
:102EC00080B5DFF8A42A0021022001F08CFFDFF892
:102ED0009C2A0121022001F086FFDFF8B82B022195
:102EE000022001F080FFDFF8EC2D0321022001F029
:102EF0007AFF01BD80B5DFF8702A0021022001F0C1
:102F000072FFDFF8682A0121022001F06CFFDFF870
:102F1000602A0221022001F066FFDFF8842E0321DF
:102F2000022001F060FF01BD80B50020DFF820190C
:102F300008800020DFF8501B087001F02EFD00F023
:102F400063FADFF84C0B0078002816D0FFF73AFE42
:102F5000DFF8341B0870DFF8300B0078082803D145
:102F600001F01BFD00F00AF8DFF81C0B00780C28BC
:102F7000E7D101F012FDFFF78DFE01BD80B5002005
:102F8000DFF8CC1808800020DFF8FC1A087001F088
:102F900004FD00F0BFFADFF8F80A007800284DD0F1
:102FA000FFF710FEDFF8E01A0870DFF8DC0A00789F
:102FB000092811D1DFF8200D006802F04DF8DFF884
:102FC000D82ADFF8D83A02F06FF802F0E1F8DFF81B
:102FD000081D086000F09EFADFF8AC0A00780A28A5
:102FE00011D1DFF8F40C006802F036F8DFF8A82AF7
:102FF000DFF8AC3A02F058F802F0CAF8DFF8D81C53
:10300000086000F087FADFF8800A0078082803D10A
:1030100001F0C3FC00F013F8DFF86C0A0078072811
:1030200003D101F0BAFC00F08EF9DFF85C0A0078F9
:103030000C28B0D101F0B1FCFFF72CFE01BD80B52A
:103040000020DFF80C1808800020DFF83C1A087018
:1030500001F0A3FC00F0E4FADFF8340A007800285D
:103060004DD0FFF7AFFDDFF8201A0870DFF8180A1F
:103070000078092811D1DFF82C0D006801F0ECFF71
:10308000DFF8802BDFF8803B02F00EF802F080F8CA
:10309000DFF8101D086000F0C3FADFF8EC090078D3
:1030A0000A2811D1DFF8FC0C006801F0D5FFDFF829
:1030B000542BDFF8583B01F0F7FF02F069F8DFF816
:1030C000E41C086000F0ACFADFF8BC0900780828BE
:1030D00003D101F062FC00F013F8DFF8AC090078CE
:1030E000072803D101F059FCFFF748FFDFF89809E2
:1030F00000780C28B0D101F050FCFFF7CBFD01BDEA
:1031000080B50020DFF8481708800020DFF8781924
:10311000087001F042FC00F015FBDFF8740900783C
:1031200000284DD0FFF74EFDDFF85C190870DFF87E
:1031300058090078092811D1DFF8E80D006801F07E
:103140008BFFDFF85429DFF8543901F0ADFF02F0AE
:103150001FF8DFF8D01D086000F0F4FADFF8280946
:1031600000780A2811D1DFF8BC0D006801F074FF67
:10317000DFF82429DFF8283901F096FF02F008F87B
:10318000DFF8A01D086000F0DDFADFF8FC08007829
:10319000082803D101F001FC00F013F8DFF8E8087B
:1031A0000078072803D101F0F8FBFFF748FFDFF8AC
:1031B000D80800780C28B0D101F0EFFBFFF76AFDCA
:1031C00001BD80B50020DFF8881608800020DFF8F8
:1031D000B818087001F0E1FB00F03EFBDFF8B00822
:1031E000007800284DD0FFF7EDFCDFF89C18087040
:1031F000DFF894080078092811D1DFF8EC0D006899
:1032000001F02AFFDFF8FC29DFF8FC3901F04CFF60
:1032100001F0BEFFDFF8D01D086000F01DFBDFF8F5
:10322000680800780A2811D1DFF8BC0D006801F0A9
:1032300013FFDFF8D029DFF8D43901F035FF01F0B2
:10324000A7FFDFF8A41D086000F006FBDFF83808D0
:103250000078082803D101F0A0FB00F013F8DFF894
:1032600028080078072803D101F097FBFFF748FFF3
:10327000DFF8140800780C28B0D101F08EFBFFF7BE
:1032800009FD01BD80B50020DFF8C41508800020CD
:10329000DFF8F417087001F080FB00F06FFBDFF837
:1032A000F007007800284DD0FFF78CFCDFF8D81726
:1032B0000870DFF8D4070078092811D1DFF82C0D49
:1032C000006801F0C9FEDFF83C29DFF83C3901F065
:1032D000EBFE01F05DFFDFF8141D086000F04EFB0F
:1032E000DFF8A40700780A2811D1DFF8000D006884
:1032F00001F0B2FEDFF80C29DFF8103901F0D4FE3E
:1033000001F046FFDFF8E41C086000F037FBDFF84F
:1033100078070078082803D101F03FFB00F013F88C
:10332000DFF864070078072803D101F036FBFFF7C8
:1033300048FFDFF8540700780C28B0D101F02DFBCE
:10334000FFF7A8FC01BD80B50020DFF80415088058
:103350000020DFF83417087001F01FFB00F0A2FB1B
:10336000DFF82C07007800284DD0FFF72BFCDFF8A2
:1033700018170870DFF810070078092811D1DFF856
:103380006C0C006801F068FEDFF87828DFF8783808
:1033900001F08AFE01F0FCFEDFF8501C086000F02E
:1033A00081FBDFF8E40600780A2811D1DFF83C0C35
:1033B000006801F051FEDFF84C28DFF8503801F0CA
:1033C00073FE01F0E5FEDFF8241C086000F06AFBE4
:1033D000DFF8B4060078082803D101F0DEFAFFF721
:1033E000CDFDDFF8A4060078072803D101F0D5FA57
:1033F000FFF748FFDFF8900600780C28B0D101F005
:10340000CCFAFFF747FC01BD80B5DFF81C2B00218B
:10341000022001F0E8FCDFF8142B0121022001F06A
:10342000E2FCDFF80C2B0221022001F0DCFCDFF8CB
:10343000042B0321022001F0D6FCDFF8FC2A042132
:10344000022001F0D0FCDFF8A82B0521022001F0BA
:10345000CAFC00222421DFF8800890ED000ADFED8D
:10346000B30A20EE200ABDEEC00A10EE100A01F0E9
:10347000EFFC01222421DFF82C0990ED000ADFED9A
:10348000AB0A20EE200ABDEEC00A10EE100A01F0D1
:10349000DFFC02222421DFF88C0A90ED000ADFED28
:1034A000A30A20EE200ABDEEC00A10EE100A01F0B9
:1034B000CFFC03222421DFF8300B90ED000ADFED72
:1034C0009B0A20EE200ABDEEC00A10EE100A01F0A1
:1034D000BFFC04222421DFF81C0B90ED000ADFED75
:1034E000930A20EE200ABDEEC00A10EE100A01F089
:1034F000AFFC05222421DFF8F40A90ED000ADFED8D
:103500008B0A20EE200ABDEEC00A10EE100A01F070
:103510009FFC01BD80B5DFF89C2B0021022001F04B
:1035200062FCDFF8082A0121022001F05CFCDFF8D0
:10353000002A0221022001F056FCDFF8F8290321BD
:10354000022001F050FCDFF8F0290421022001F0F4
:103550004AFCDFF89C2A0521022001F044FC0022ED
:103560002421DFF8740790ED000ADFED700A20EEE9
:10357000200ABDEEC00A10EE100A01F069FC01221B
:103580002421DFF8200890ED000ADFED680A20EE24
:10359000200ABDEEC00A10EE100A01F059FC02220A
:1035A0002421DFF8800990ED000ADFED600A20EEAB
:1035B000200ABDEEC00A10EE100A01F049FC0322F9
:1035C0002421DFF8240A90ED000ADFED580A20EEEE
:1035D000200ABDEEC00A10EE100A01F039FC0422E8
:1035E0002421DFF8100A90ED000ADFED500A20EEEA
:1035F000200ABDEEC00A10EE100A01F029FC0522D7
:103600002421DFF8E80990ED000ADFED480A20EEFA
:10361000200ABDEEC00A10EE100A01F019FC01BD2F
:1036200080B5DFF804290021022001F0DCFBDFF87F
:10363000482B0121022001F0D6FBDFF8F4280221FB
:10364000022001F0D0FBDFF8EC280321022001F07A
:10365000CAFBDFF8E4280421022001F0C4FBDFF8F4
:1036600090290521022001F0BEFB00222421DFF871
:10367000680690ED000ADFED2D0A20EE200ABDEE6F
:10368000C00A10EE100A01F0E3FB01222421DFF84A
:10369000140790ED000ADFED250A20EE200ABDEEAA
:1036A000C00A10EE100A01F0D3FB02222421DFF839
:1036B000740890ED000ADFED1D0A20EE200ABDEE31
:1036C000C00A10EE100A01F0C3FB03222421DFF828
:1036D000180990ED000ADFED150A20EE200ABDEE74
:1036E000C00A10EE100A01F0B3FB04222421DFF817
:1036F000040990ED000ADFED0D0A20EE200ABDEE70
:10370000C00A10EE100A01F0A3FB05222421DFF805
:10371000DC0890ED000ADFED050A20EE200ABDEE80
:10372000C00A10EE100A01F093FB01BD00007A44BC
:103730005B29FF1F5504FF1F2C13FF1F5E29FF1F6E
:103740005004FF1F80B5DFF8E0270021022001F0C0
:103750004AFBDFF8D8270121022001F044FBDFF803
:10376000802B0221022001F03EFBDFF8C827032155
:10377000022001F038FBDFF8C0270421022001F00D
:1037800032FBDFF86C280521022001F02CFB00221F
:103790002421DFF8440590ED000ADFEDBC0A20EE9D
:1037A000200ABDEEC00A10EE100A01F051FB012202
:1037B0002421DFF8F00590ED000ADFEDB40A20EED9
:1037C000200ABDEEC00A10EE100A01F041FB0222F1
:1037D0002421DFF8500790ED000ADFEDAC0A20EE5F
:1037E000200ABDEEC00A10EE100A01F031FB0322E0
:1037F0002421DFF8F40790ED000ADFEDA40A20EEA3
:10380000200ABDEEC00A10EE100A01F021FB0422CE
:103810002421DFF8E00790ED000ADFED9C0A20EE9E
:10382000200ABDEEC00A10EE100A01F011FB0522BD
:103830002421DFF8B80790ED000ADFED940A20EEAE
:10384000200ABDEEC00A10EE100A01F001FB01BD16
:103850005429FF1F5404FF1F80B5DFF8CC26002138
:10386000022001F0C0FADFF8C4260121022001F095
:10387000BAFADFF8BC260221022001F0B4FADFF820
:10388000882B0321022001F0AEFADFF8AC260421D8
:10389000022001F0A8FADFF858270521022001F0E4
:1038A000A2FA00222421DFF8500790ED000ADFED94
:1038B000770A20EE200ABDEEC00A10EE100A01F0D1
:1038C000C7FA01222421DFF8DC0490ED000ADFEDC5
:1038D0006F0A20EE200ABDEEC00A10EE100A01F0B9
:1038E000B7FA02222421DFF83C0690ED000ADFED52
:1038F000670A20EE200ABDEEC00A10EE100A01F0A1
:10390000A7FA03222421DFF8E00690ED000ADFED9C
:103910005F0A20EE200ABDEEC00A10EE100A01F088
:1039200097FA04222421DFF8CC0690ED000ADFED9F
:10393000570A20EE200ABDEEC00A10EE100A01F070
:1039400087FA05222421DFF8A40690ED000ADFEDB6
:103950004F0A20EE200ABDEEC00A10EE100A01F058
:1039600077FA01BD5C29FF1FACA30000B4A30000DF
:10397000BCA30000B0A20000C0A2000080B5DFF828
:10398000A8250021022001F02EFADFF8A025012150
:10399000022001F028FADFF898250221022001F028
:1039A00022FADFF890250321022001F01CFADFF84B
:1039B000A42B0421022001F016FADFF83426052199
:1039C000022001F010FA00222421DFF82C0690EDED
:1039D000000ADFED2E0A20EE200ABDEEC00A10EE2E
:1039E000100A01F035FA01222421DFF8100690EDCB
:1039F000000ADFED260A20EE200ABDEEC00A10EE16
:103A0000100A01F025FA02222421DFF8180590EDB2
:103A1000000ADFED1E0A20EE200ABDEEC00A10EEFD
:103A2000100A01F015FA03222421DFF8BC0590EDFD
:103A3000000ADFED160A20EE200ABDEEC00A10EEE5
:103A4000100A01F005FA04222421DFF8A80590ED00
:103A5000000ADFED0E0A20EE200ABDEEC00A10EECD
:103A6000100A01F0F5F905222421DFF8800590ED18
:103A7000000ADFED060A20EE200ABDEEC00A10EEB5
:103A8000100A01F0E5F901BD5D29FF1F00007A442D
:103A90005604FF1FD0A200007B14AE47E17A843F9A
:103AA000E17A84BF80B5DFF880240021022001F094
:103AB0009AF9DFF878240121022001F094F9DFF867
:103AC00070240221022001F08EF9DFF8682403211E
:103AD000022001F088F9DFF860240421022001F0BF
:103AE00082F9DFF8242B0521022001F07CF9002265
:103AF0002421DFF8040590ED000ADFEDDC0A20EE5A
:103B0000200ABDEEC00A10EE100A01F0A1F9012250
:103B10002421DFF8E80490ED000ADFEDD40A20EE5E
:103B2000200ABDEEC00A10EE100A01F091F902223F
:103B30002421DFF8CC0490ED000ADFEDCC0A20EE62
:103B4000200ABDEEC00A10EE100A01F081F903222E
:103B50002421DFF8940490ED000ADFEDC40A20EE82
:103B6000200ABDEEC00A10EE100A01F071F904221D
:103B70002421DFF8800490ED000ADFEDBC0A20EE7E
:103B8000200ABDEEC00A10EE100A01F061F905220C
:103B90002421DFF8580490ED000ADFEDB40A20EE8E
:103BA000200ABDEEC00A10EE100A01F051F901BD65
:103BB00080B50020DFF8541A08800020DFF8501A82
:103BC000087000F0EAFE00F0B9F9DFF8480A007862
:103BD000002816D0FEF7F6FFDFF8341A0870DFF879
:103BE000300A0078082803D100F0D7FE00F010F862
:103BF000DFF81C0A00780C28E7D100F0CEFEFFF7B2
:103C000049F801BD9A9999999999B93F9999B9BF7C
:103C100080B50020DFF8F41908800020DFF8F019E3
:103C2000087000F0BAFE00F0EDF9DFF8E80900785E
:103C300000284DD0FEF7C6FFDFF8D4190870DFF872
:103C4000D0090078092811D1DFF8CC09006801F00B
:103C500003FADFF8C829DFF8C83901F025FA01F0C6
:103C600097FADFF8B419086000F0CCF9DFF8A00982
:103C700000780A2811D1DFF8A009006801F0ECF9FA
:103C8000DFF89829DFF89C3901F00EFA01F080FA8C
:103C9000DFF88419086000F0B5F9DFF874090078DE
:103CA000082803D100F079FE00F018F8DFF8600969
:103CB0000078072803D100F070FE00F0D9F8DFF893
:103CC000500900780C28B0D100F067FEFEF7E2FF43
:103CD00001BD0000C4A300001004FF1F80B5002038
:103CE000DFF8281908800020DFF82419087000F098
:103CF00054FE00F0E1F9DFF81C09007800284DD0EF
:103D0000FEF760FFDFF808190870DFF80409007893
:103D1000092811D1DFF81009006801F09DF9DFF8DA
:103D20000C29DFF80C3901F0BFF901F031FADFF8A6
:103D3000F818086000F0C0F9DFF8D40800780A2805
:103D400011D1DFF8E408006801F086F9DFF8DC281B
:103D5000DFF8E03801F0A8F901F01AFADFF8C81826
:103D6000086000F0A9F9DFF8A8080078082803D156
:103D700000F013FE00F018F8DFF894080078072828
:103D800003D100F00AFEFFF743FFDFF88408007854
:103D90000C28B0D100F001FEFEF77CFF01BD000051
:103DA000E0A20000700EFF1F80B50020DFF85C1855
:103DB00008800020DFF85818087000F0EEFD00F0D1
:103DC000DDF9DFF85008007800284DD0FEF7FAFE44
:103DD000DFF83C180870DFF838080078092811D19E
:103DE000DFF85408006801F037F9DFF83028DFF811
:103DF000303801F059F901F0CBF9DFF83C180860D0
:103E000000F0BCF9DFF8080800780A2811D1DFF8C3
:103E10002808006801F020F9DFF80028DFF80438EE
:103E200001F042F901F0B4F9DFF80C18086000F075
:103E3000A5F9DFF8DC070078082803D100F0ADFD14
:103E400000F016F8DFF8C8070078072803D100F063
:103E5000A4FDFFF743FFDFF8B80700780C28B0D1C6
:103E600000F09BFDFEF716FF01BD000000007A4444
:103E700080B50020DFF8941708800020DFF8901745
:103E8000087000F08AFD00F0D3F9DFF888070078A9
:103E9000002845D0FEF796FEDFF874170870DFF8AB
:103EA0007007007809280DD1DFF8900790ED000A1F
:103EB000F2EE040A30EE200ADFF8800780ED000AF7
:103EC00000F0B6F9DFF8480700780A280DD1DFF8CE
:103ED0006C0790ED000AFAEE040A30EE200ADFF8D3
:103EE0005C0780ED000A00F0A3F9DFF824070078F2
:103EF000082803D100F051FDFFF78AFEDFF8100714
:103F00000078072803D100F048FDFFF74DFFDFF8E8
:103F1000000700780C28B8D100F03FFDFEF7BAFE8C
:103F200001BD00001404FF1FCCA30000D4A30000B7
:103F3000DCA30000E4A30000ECA3000080B58AA28B
:103F40000021022000F04FFF88A20121022000F092
:103F50004AFF87A20221022000F045FF85A203212B
:103F6000022000F040FF00221821DFF8AC0690ED9F
:103F7000000ADFEDAE0A20EE200ABDEEC00A10EE08
:103F8000100A00F065FF01221821DFF89C0690ED71
:103F9000000ADFEDA60A20EE200ABDEEC00A10EEF0
:103FA000100A00F055FF02221821DFF88C0690ED70
:103FB000000ADFED9E0A20EE200ABDEEC00A10EED8
:103FC000100A00F045FF03221821DFF8700690ED7B
:103FD000000AF2EE040A20EE200ABDEEC00A10EE3E
:103FE000100A00F035FF01BD1804FF1F2004FF1F59
:103FF000F4A300001C04FF1F1004FF1F700EFF1F1E
:104000001404FF1F80B5DFF838260021022000F0DD
:10401000EAFE56A20121022000F0E5FE54A2022190
:10402000022000F0E0FE53A20321022000F0DBFE9C
:1040300000221821DFF8E00590ED000ADFED7B0A91
:1040400020EE200ABDEEC00A10EE100A00F000FFBC
:1040500001221821DFF8D00590ED000ADFED730A88
:1040600020EE200ABDEEC00A10EE100A00F0F0FEAD
:1040700002221821DFF8C00590ED000ADFED6B0A7F
:1040800020EE200ABDEEC00A10EE100A00F0E0FE9D
:1040900003221821DFF8A40590ED000AF2EE040ACD
:1040A00020EE200ABDEEC00A10EE100A00F0D0FE8D
:1040B00001BD0000F0A2000080B52BA2002102206B
:1040C00000F091FEDFF87C250121022000F08BFE3C
:1040D00027A20221022000F086FE26A20321022050
:1040E00000F081FE00221821DFF82C0590ED000A77
:1040F000DFED4E0A20EE200ABDEEC00A10EE100AD7
:1041000000F0A6FE01221821DFF81C0590ED000A40
:10411000DFED460A20EE200ABDEEC00A10EE100ABE
:1041200000F096FE02221821DFF80C0590ED000A3F
:10413000DFED3E0A20EE200ABDEEC00A10EE100AA6
:1041400000F086FE03221821DFF8F00490ED000A4B
:10415000F2EE040A20EE200ABDEEC00A10EE100AAC
:1041600000F076FE01BD0000312E5000322E4900D5
:10417000332E4400342E560000A3000080B59FA2C9
:104180000021022000F02FFE9DA20121022000F05C
:104190002AFEDFF8B4240221022000F024FE99A2B6
:1041A0000321022000F01FFE00221821DFF868041E
:1041B00090ED000ADFED1D0A20EE200ABDEEC00AD8
:1041C00010EE100A00F044FE01221821DFF8580416
:1041D00090ED000ADFED150A20EE200ABDEEC00AC0
:1041E00010EE100A00F034FE02221821DFF8480415
:1041F00090ED000ADFED0D0A20EE200ABDEEC00AA8
:1042000010EE100A00F024FE03221821DFF82C041F
:1042100090ED000AF2EE040A20EE200ABDEEC00A7C
:1042200010EE100A00F014FE01BD000000007A44F8
:1042300080B572A20021022000F0D5FD70A20121FC
:10424000022000F0D0FDACA20221022000F0CBFD44
:10425000DFF8F8230321022000F0C5FD0022182119
:10426000DFF8B40390ED000ADFEDA40A20EE200A87
:10427000BDEEC00A10EE100A00F0EAFD012218217E
:10428000DFF8A40390ED000ADFED9C0A20EE200A7F
:10429000BDEEC00A10EE100A00F0DAFD022218216D
:1042A000DFF8940390ED000ADFED940A20EE200A77
:1042B000BDEEC00A10EE100A00F0CAFD032218215C
:1042C000DFF8780390ED000AF2EE040A20EE200AEF
:1042D000BDEEC00A10EE100A00F0BAFD01BD0000EC
:1042E00010A3000080B50020C84908800020C849FC
:1042F000087000F052FB00F0D5F8C648007800289E
:1043000013D0FEF75FFCC2490870C1480078082846
:1043100003D100F042FB00F009F8BD4800780C28FA
:10432000EBD100F03AFBFEF7B5FC01BD80B50020F3
:10433000B64908800020B649087000F02EFB00F056
:10434000DFF8B4480078002857D0FEF73BFCB049AE
:104350000870AF480078092819D1BD48006800F0FE
:104360007BFE0022BB4B00F09FFE00F011FFB8491E
:104370000860B948006800F06FFE0022B54B00F0FD
:1043800093FE00F005FFB449086000F0B9F8A048BA
:1043900000780A2819D1AE48006800F05DFE0022BE
:1043A000AE4B00F081FE00F0F3FEA9490860AA4878
:1043B000006800F051FE0022A84B00F075FE00F0EE
:1043C000E7FEA549086000F09BF8914800780828AE
:1043D00003D100F0E2FA00F019F88D4800780728C0
:1043E00003D100F0DAFAFFF7A1FF894800780C2822
:1043F000A7D100F0D2FAFEF74DFC01BD312E5000DE
:10440000322E4900342E560020A3000080B5002033
:104410007E49088000207E49087000F0BEFA00F056
:104420009BF87C48007800283BD0FEF7CBFB78490E
:1044300008707748007809280BD1894890ED000A68
:10444000F7EE000A30EE200A854880ED000A00F001
:1044500083F86F4800780A280BD1814890ED000A54
:10446000FFEE000A30EE200A7D4880ED000A00F0E1
:1044700073F867480078082803D100F08EFAFFF738
:1044800055FF63480078072803D100F086FAFFF74C
:10449000BDFF5F4800780C28C3D100F07EFAFEF71C
:1044A000F9FB01BD80B555A20021022000F09BFC64
:1044B00053A20121022000F096FC0022182164483A
:1044C00090ED000ADFED0D0A20EE200ABDEEC00AD5
:1044D00010EE100A00F0BCFC01221821604890ED9B
:1044E000000ADFED060A20EE200ABDEEC00A10EE3B
:1044F000100A00F0ADFC01BD332E440000007A44E8
:1045000080B54F4A0021022000F06DFC3CA2012141
:10451000022000F068FC002218214D4890ED000AAE
:10452000DFED380A20EE200ABDEEC00A10EE100AB8
:1045300000F08EFC01221821494890ED000ADFEDC1
:10454000310A20EE200ABDEEC00A10EE100A00F07B
:104550007FFC01BD30A3000080B528A2002102200D
:1045600000F041FC3F4A0121022000F03CFC002207
:104570001821374890ED000ADFED220A20EE200ACC
:10458000BDEEC00A10EE100A00F062FC01221821F4
:10459000334890ED000ADFED1B0A20EE200ABDEE45
:1045A000C00A10EE100A00F053FC01BD80B50020D7
:1045B0001649088000201649087000F0EEF91548E9
:1045C0000078002819D0FEF7FDFA1149087000F0B4
:1045D00061FE4FF416722449244800F08BFE01F06E
:1045E000A1FCFBF719FF00F099FA094800780C28A4
:1045F000E5D100F0D2F9FEF74DFB01BD312E5000A0
:10460000322E440000007A4440A300005429FF1FCA
:104610005D29FF1F5604FF1F2404FF1F9A999999D3
:104620009999B93F9999B9BF740EFF1F7B14AE4792
:10463000E17A843FE17A84BF2804FF1F2C04FF1F26
:1046400050A3000060A3000070A3000080A300003E
:104650003004FF1F0000D03F3404FF1F0000D0BF14
:104660003804FF1F90A300003013FF1F8815FF1FA1
:1046700070B504000D0016004FF480712000C0B228
:1046800000F0C8F86DB2002D11D16048E4B261119C
:1046900050F821005D49E4B2621151F822104969D5
:1046A000012214F01F039A409143416136E05748BC
:1046B000E4B2611150F821005449E4B2621151F89A
:1046C00022104969012214F01F039A4011434161ED
:1046D000F6B2002E11D14D48E4B2611150F821001C
:1046E0000068012114F01F02914088434749E4B259
:1046F000621151F82210086010E04448E4B26111E0
:1047000050F821000068012114F01F029140084375
:104710003E49E4B2621151F82210086070BD38B50C
:1047200004000D003948E4B2611150F821004069DD
:1047300014F01F010200CA40D00703D4632134489B
:1047400001F04FFDEDB2002D11D13048E4B26111FE
:1047500050F821000068012114F01F0291408843A5
:104760002A49E4B2621151F82210086010E027488B
:10477000E4B2611150F821000068012114F01F0219
:10478000914008432149E4B2621151F822100860B7
:1047900031BD10B504001D48E4B2611150F821008C
:1047A000406914F01F010200CA40D00703D47B21E6
:1047B000174801F016FD1548E4B2611150F82100C8
:1047C000012114F01F029140C16010BD10B504001A
:1047D0000E48E4B2611150F82100406914F01F0145
:1047E0000200CA40D00703D58C21094801F0F9FC2A
:1047F0000648E4B2611150F82100006914F01F016D
:104800000200CA4012F0010010BD0000700BFF1F33
:104810000C9F000010B4294A12684FF40073C0B214
:104820004409A3401A43254B1A60254AC0B24311DC
:1048300052F82320012310F01F04A340C2F8A03037
:104840001F4AC0B2431152F82320C0B210F01F0318
:1048500042F8231010BC704710B4184A12684FF485
:104860000073C0B24409A3401A43144B1A60144A9F
:10487000C0B2431152F82320012310F01F04A340BB
:10488000C2F8A03031F4E0610D4AC0B2431152F8D1
:104890002320C0B210F01F0352F8232012F4E0626C
:1048A0001143074AC0B2431152F82320C0B210F09E
:1048B0001F0342F8231010BC7047000038800440EA
:1048C000E80BFF1F08210122DFF86C371A60002275
:1048D000DFF868371A600A00511ED2B2002A15D0DC
:1048E000020604D50122DFF858371A6003E00022DF
:1048F000DFF84C371A600122DFF840371A6000BF3A
:104900000022DFF838371A604000E4E77047000003
:1049100008210022DFF820371A600022DFF81C3758
:104920001A600A00511ED2B2002A15D0020604D520
:104930000122DFF80C371A6003E00022DFF80037AD
:104940001A600122DFF8F4361A6000BF0022DFF897
:10495000EC361A604000E4E7704770B504000020B0
:104960000500EDB2082D17DAB5F15000C0B2FFF71F
:10497000CFFF0120FFF7CCFF1020FFF7C9FF002079
:104980000600F6B2802E05DA2000C0B2FFF79AFFCB
:10499000761CF6E76D1CE4E770BD38B50020040016
:1049A000E4B2082C16DAB4F15000C0B2FFF7B0FF41
:1049B0000120FFF7ADFF1020FFF7AAFF0020050040
:1049C000EDB2802D04DA0020FFF77CFF6D1CF7E7C5
:1049D000641CE5E731BD38B504000D00B5F15000A9
:1049E000C0B2FFF795FFE4B2200950F01000C0B24A
:1049F000FFF78EFF14F00F0050F00100C0B2FFF778
:104A000087FF31BD002808D040F2375211000A005C
:104A1000511E002AFBD1401EF4E7704780B50022EA
:104A200001215020FFF724FE002201215120FFF731
:104A30001FFE002201215220FFF71AFE0022012151
:104A40005320FFF715FE0120DFF8F0150860002065
:104A5000DFF8F01508603220FFF7D4FF0120DFF8FF
:104A6000E4150860AE20FFF753FF0020FFF750FF6A
:104A70001020FFF74DFF4020FFF74AFF8120FFF78E
:104A800047FFCF20FFF744FFA120FFF741FFC820D9
:104A9000FFF73EFFA620FFF73BFFA820FFF738FFF8
:104AA0003F20FFF735FFD320FFF732FF0020FFF74D
:104AB0002FFFD520FFF72CFF8020FFF729FFD920FB
:104AC000FFF726FFF120FFF723FFDA20FFF720FF93
:104AD0001220FFF71DFFDB20FFF71AFF4020FFF732
:104AE00017FF2020FFF714FF0220FFF711FF8D2092
:104AF000FFF70EFF1420FFF70BFFA420FFF708FFBE
:104B0000A620FFF705FFAF20FFF702FF0020FFF709
:104B100024FF00210020FFF75EFF01BD70B5FFF705
:104B20003CFF00240025002600200400E4B2402CB5
:104B300080F28580E4B2082094FBF0F1C9B2002035
:104B4000FFF749FF00200500EDB2502D75DA002077
:104B50000600DFF8F404E4B2502101FB0400EDB2DA
:104B6000285C002801D056F00106DFF8DC04E4B22E
:104B7000502101FB0400EDB2281890F850000028E5
:104B800001D056F00206DFF8C004E4B2502101FB68
:104B90000400EDB2281890F8A000002801D056F0CB
:104BA0000406DFF8A404E4B2502101FB0400EDB2D6
:104BB000281890F8F000002801D056F00806DFF819
:104BC0008804E4B2502101FB0400EDB2281890F8EB
:104BD0004001002801D056F01006DFF86C04E4B262
:104BE000502101FB0400EDB2281890F89001002834
:104BF00001D056F02006DFF85004E4B2502101FB4A
:104C00000400EDB2281890F8E001002801D056F019
:104C10004006DFF83404E4B2502101FB0400EDB299
:104C2000281890F83002002801D056F08006300095
:104C3000C0B2FFF747FE6D1C86E7083476E770BD0B
:104C40002DE9F84304000D00160000275FF000086E
:104C50005FF000095FFA89F919F8060000282BD0E7
:104C60005FFA89F919F8060020380700E4B27F2CB2
:104C700002DB002004006D1C2900C9B22000C0B274
:104C8000FFF7A9FE002080465FFA88F8B8F1060F0A
:104C90000EDADFF8B803FFB2062101FB07005FFA66
:104CA00088F818F80000FFF70DFE18F10108EBE78F
:104CB000A41D19F10109CDE7BDE8F1832DE9F84301
:104CC00004000D00160000275FF000085FF00109E6
:104CD0005FFA88F818F80600002800F082800020AB
:104CE000070001208146DA48FFB2385C80281BDBD0
:104CF000D748FFB2385C5FFA88F818F80610884287
:104D000010D1D348FFB2381840785FFA88F818EB12
:104D100006014978884205D1FFB20E2000FB07F05A
:104D2000814601E0BF1CDEE7E4B2772C02DB002005
:104D300004006D1C2900C9B22000C0B2FFF74BFE71
:104D4000B9F1010F27D02900C9B22000C0B2FFF786
:104D500042FE00200700FFB20E2F08DABD4819F806
:104D60000000FFF7AFFD19F101097F1CF3E7691C93
:104D7000C9B22000C0B2FFF72EFE00200700FFB22C
:104D80000E2F2ADAB34819F80000FFF79BFD19F13E
:104D900001097F1CF3E718F101082900C9B22000BE
:104DA000C0B2FFF718FE00200700FFB2102F04DA90
:104DB0000020FFF787FD7F1CF7E7691CC9B22000C0
:104DC000C0B2FFF708FE00200700FFB2102F04DA80
:104DD0000020FFF777FD7F1CF7E70E3418F102087B
:104DE00076E7BDE8F183F8B504000D001600002752
:104DF000FFB2B85D00282AD0FFB2B85D802815DB6D
:104E0000FFB2B85D8DF80000FFB2B81940788DF898
:104E1000010000208DF8020000AA2900C9B220007C
:104E2000C0B2FFF74BFF0E34BF1CE1E7FFB2B85D25
:104E30008DF8000000208DF8010000AA2900C9B2F9
:104E40002000C0B2FFF7FCFE08347F1CD0E7F1BDA4
:104E5000F0B583B006000C00150000A80021002268
:104E600006C00838002E04D52D208DF800007642AB
:104E700002E02B208DF8000042F2107096FBF0F05B
:104E80008DF8010042F2107096FBF0F100FB11600A
:104E90004FF47A7190FBF1F08DF802002E208DF81E
:104EA00003004FF47A7096FBF0F100FB116064216F
:104EB00090FBF1F08DF80400642096FBF0F100FB0C
:104EC00011600A2190FBF1F08DF805000A2096FB95
:104ED000F0F100FB11608DF806000027FFB2072FEC
:104EE00080F28E8000A8FFB23856002818D0012822
:104EF0001ED0022824D003282AD0042830D0052828
:104F000036D006283CD0072842D0082848D00928A7
:104F10004ED02B285CD02D2852D02E2860D067E0B0
:104F200038A22900C9B22000C0B2FFF75CFF5FE0E1
:104F300035A22900C9B22000C0B2FFF754FF57E0E4
:104F400032A22900C9B22000C0B2FFF74CFF4FE0E7
:104F50002FA22900C9B22000C0B2FFF744FF47E0EA
:104F60002CA22900C9B22000C0B2FFF73CFF3FE0ED
:104F700029A22900C9B22000C0B2FFF734FF37E0F0
:104F800026A22900C9B22000C0B2FFF72CFF2FE0F3
:104F900023A22900C9B22000C0B2FFF724FF27E0F6
:104FA00020A22900C9B22000C0B2FFF71CFF1FE0F9
:104FB0001DA22900C9B22000C0B2FFF714FF17E0FC
:104FC0001AA22900C9B22000C0B2FFF70CFF0FE0FF
:104FD00017A22900C9B22000C0B2FFF704FF07E002
:104FE00014A22900C9B22000C0B2FFF7FCFEFFE7FF
:104FF0000A34E4B25A2C01D1142004007F1C6DE75E
:10500000F7BD000030000000310000003200000059
:1050100033000000340000003500000036000000BE
:105020003700000038000000390000002D000000AB
:105030002B0000002E0000004C10FE434010FE43E9
:105040004410FE434810FE438815FF1FB89500002A
:1050500020A20000409B00005FF0FF0C1CEAD05132
:1050600014BF614506E0C110400721F0E04101F1A5
:105070006051704779B900F0004100020AD0B0FADF
:1050800080FC00FA0CF001F16051A1EB0C5101EB36
:10509000D0214005704741020CBF40F4E0016FF0A1
:1050A000000100207047FF0070B44FF0004591EA06
:1050B000030C44BF6B4001F031B900BF841A71EB9F
:1050C000030603D2001BB141121973414FF4001CB7
:1050D0001CEB410F34BF7CEB430443E00C0DA4EB0D
:1050E0001356352E50DC45EAC323DB0A45EAC121BD
:1050F000C912B6F120050DDD63FA05F6EB4086EA2C
:105100000305124218BF45F00105C01851F1000116
:105110000CD213E062FA06F5F2405540F3415A40D2
:10512000B340F3405A408018594107D349085FEA19
:1051300030005FEA350528BF45F0010501F5801113
:10514000420875F1004250F1000041EB045170BC7F
:105150004FF4001C1CEB410F38BF70470020090DB5
:10516000090570471CEB410F10D252EA43060BD0E1
:10517000BCEB410F05D80C0DAB43661E342EB5DDDC
:1051800002E0AB438018594170BC704770BC704757
:105190004FEAF17CBCF1E04C2CBFBCF5001F11E0E4
:1051A0005FEA4C0C34BFBCF17F5F2EE05FEA9C0CE1
:1051B0004FEA0C1C4FEA3C0CC10071F100414CEB72
:1051C00050707047C90241EA5051C00218BF41F007
:1051D000010141F000414FEA6C50C0F10900212863
:1051E00010D240EACC7CCCF1200C11FA0CF070F11A
:1051F0000040CCF1200C21FA0CF00CF0004C40EBFC
:105200000C0070474FEACC707047490011F5001F41
:1052100004D84FEACC10FF30C0057047C81770475C
:10522000012110F01F0291402B4A40B2430942F87D
:1052300023107047012110F01F029140274A40B20D
:10524000430942F82310704780B5274890F90000C1
:10525000042818D10320244908705720FFF7EAFFDB
:105260005FF00060214908601E48006850F00100AE
:105270001C4908605FF000601C490860184800681D
:105280001B49086005E05720FFF7D4FF02201649AC
:10529000087001BD80B50420134908705FF0FF302D
:1052A000124908605720FFF7BBFF0F4890F9000034
:1052B00001280FD00C4890F900000228F5D10420F5
:1052C000094908705FF0FF30084908605720FFF770
:1052D000A7FFEAE701BD000000E100E080E100E097
:1052E0009028FF1F0C800040200CFF1FA09004405E
:1052F00010900040F8B4234B1B88ADF80030050037
:105300000C001600721E002E3AD026783300641C62
:1053100000AEDBB2DF11BE5D2E706D1C00AEC3F3BC
:105320008017FFB2BE5D2E706D1C00AEC3F3401738
:10533000FFB2BE5D2E706D1C00AEC3F30017FFB24E
:10534000BE5D2E706D1C00AEC3F3C007FFB2BE5D24
:105350002E706D1C00AEC3F38007FFB2BE5D2E70D1
:105360006D1C00AEC3F34007FFB2BE5D2E706D1C16
:1053700000AEDBB213F00107BE5D2E706D1CC0E7FE
:10538000F1BC7047A650000038B52DED028BB0EE91
:10539000408AF0EE608A9FED2C0A38EE000A10EE8B
:1053A000100AFFF759FE0022DFF8603801F06CF8B0
:1053B000DFF85C28C2E900019FED240A28EE800A8C
:1053C00010EE100AFFF748FEDFF84828C2E9000196
:1053D000DFF84008D0E90023DFF85809DFF8581952
:1053E00001F052F8DFF8242753681268FFF75CFEDB
:1053F000DFF84829DFF8483901F046F804000D00CD
:10540000DFF80C08D0E90023DFF83809DFF8381995
:1054100001F03AF822002B00FFF746FEDFF8EC26F9
:10542000C2E90001DFF8E406416800680022DFF805
:10543000E83701F0FBF8FFF7ABFEDFF8AC1A0860C5
:10544000BDEC028B31BD0000000016C300002C42F1
:1054500080B50020DFF87C1A08600020DFF8781A99
:105460000860012001F0C4FCDFF8681A086002201F
:1054700001F0BEFC4042DFF8601A0860012001F034
:10548000CDFC022001F0CAFCDFF8600A0068DFF8FA
:10549000441A09680818DFF8541A0860DFF8040C89
:1054A0000068DFF8341A09680818DFF8F81B08608C
:1054B00001BD000038B5DFF8540641680068FFF709
:1054C00067FEDFF82C1A0860DFF8280A0088C92870
:1054D00004DB0120DFF8201A088006E0DFF8140A58
:1054E0000088401CDFF80C1A0880DFF80C0A0088DE
:1054F000002811D00120DFF8041A0880DFF8000A24
:1055000090ED000ADFF8E809D0ED000A30EE200A3D
:10551000DFF8EC0980ED000ADFF8E40990ED000AFD
:10552000DFF8E009D0ED000A20EE200ADFF8D80904
:1055300080ED000ADFF8D00990ED000ADFED950A52
:10554000B4EE600AF1EE10FA03D5DFF8BC09914918
:105550000160DFF8B40990ED000ADFED8F0AB4EEC8
:10556000600AF1EE10FA04DBDFF89C09DFF89C1901
:105570000160DFF87C0990ED000ADFF89409D0EDB6
:10558000000A20EE200ADFF87409008800EE900A75
:10559000F8EE600ADFF8700990ED001A00EE810A5B
:1055A00010EE100AFFF758FD04000D00DFF8640943
:1055B0000068FFF751FDDFF85C265368126800F0C1
:1055C00063FF22002B00FFF76FFDFFF7E1FDDFF81F
:1055D0004819086031BD000080B5DFF8400990ED42
:1055E000000ADFF83409D0ED000A30EE600ADFF877
:1055F000300980ED000ADFF8280990ED000ADFEDA0
:10560000780A80EE200A10EE100AFFF725FDDFF879
:105610002427DFF8243701F009F8FFF7B9FDDFF898
:105620006C1A0860DFF8B408B0F9000000EE100A48
:10563000B8EEC00ADFF8540AD0ED000A30EEC00A16
:10564000DFF84C0A80ED000ADFF8480A0088B0F560
:105650007A7F04DD0120DFF8401A088006E0DFF8D9
:10566000340A0088401CDFF82C1A0880DFF8280A6A
:105670000088002841D0DFF8180A90ED000ABCEE3F
:10568000C00A10EE100A01F0EBFBC92804DB002071
:10569000DFF8081A088003E00120DFF8001A08800C
:1056A000DFF8FC0990ED000ADFF8E409D0ED000A0C
:1056B00030EE200ADFF8E80980ED000ADFF8E009A3
:1056C00090ED000ADFED470AB4EE600AF1EE10FA41
:1056D00003D5DFF8CC0943490160DFF8C40990ED38
:1056E000000ADFED410AB4EE600AF1EE10FA04DBC5
:1056F000DFF8AC09DFF8B0190160DFF8940990ED2C
:10570000000ADFF8A809D0ED000A30EE600ADFF8E1
:10571000A00980ED000ADFF89409DFF87419096820
:105720000160DFF89009DFF8901909680160DFF87F
:10573000600990ED000ADFF88409D0ED000A20EE40
:10574000200ADFF85C09D0ED000ADFF8740990ED5B
:10575000001A60EE810ADFF84409008801EE100AA1
:10576000B8EE411A00EE810ADFF84409D0ED000AD4
:10577000DFF8500990ED001A00EE810ADFF83809D1
:1057800080ED000ADFF84009DFF82C190968016094
:1057900001BD00000000A0C20100A04280B5DFF8FA
:1057A0002C090088401CDFF824190880DFF81C0948
:1057B0000088052805D1FFF77DFE0020DFF80C19D1
:1057C0000880FFF709FFDFF80809DFF8FC1809680F
:1057D0000160DFF80009DFF8F8180968016001BD11
:1057E0000000344300409CC501409C45DFF8FC06A6
:1057F0000068DFF8B01809680818022190FBF1F082
:1058000000EE100AB8EEC00ADFF8CC0880ED000AFE
:10581000DFF8D8060068DFF88C180968081802213C
:1058200090FBF1F000EE100AB8EEC00ADFF8AC0809
:1058300080ED000A0020DFF8B41608600020DFF8D1
:1058400064180860DFF89808B14909680160DFF85A
:105850009408B04909680160DFF8800890ED000AFB
:10586000DFF88408D0ED000A30EE600AA84880ED29
:10587000000ADFF8640890ED000ADFF86C08D0ED4C
:10588000000A30EE600AA34880ED000AA04890EDBF
:10589000000ADFF85808D0ED000A20EE200ADFF8F1
:1058A000500880ED000A9B4890ED000ADFF83C08A4
:1058B000D0ED000A20EE200ADFF8380880ED000A5B
:1058C000934890ED000ADFF81808D0ED000A30EE9A
:1058D000600ADFF82408D0ED000A20EE200ADFF885
:1058E0001C0880ED000A8B4890ED000ADFF8F407F1
:1058F000D0ED000A30EE600ADFF8FC07D0ED000AB8
:1059000020EE200ADFF8F80780ED000A804890EDCD
:10591000000ADFF8F007D0ED000ADFF8EC0790EDA1
:10592000001A00EE201ADFF8E00780ED001ADFF819
:10593000D80790ED000ADFED730AB4EE600AF1EECD
:1059400010FA04DBDFF8C007DFF8C0170160DFF8EA
:10595000B80790ED000ADFED6C0AB4EE600AF1EED4
:1059600010FA03D5DFF8A00767490160DFF8A00748
:10597000DFF8941709680160664890ED000ADFF8C7
:105980008407D0ED000ADFF88C0790ED001A00EED6
:10599000201ADFF8800780ED001ADFF8780790ED15
:1059A000000ADFED580AB4EE600AF1EE10FA04DBEB
:1059B000DFF86007DFF854170160DFF8580790ED53
:1059C000000ADFED510AB4EE600AF1EE10FA03D5D9
:1059D000DFF840074C490160DFF83C07DFF8341777
:1059E00009680160DFF83407DFF8341709680160DF
:1059F000DFF83007DFF8301709680160DFF8F006DC
:105A000090ED000ADFF80807D0ED000A30EE200A1A
:105A1000DFF8E806D0ED000A30EE200ADFF80007D4
:105A200080ED000ADFF8CC0690ED000ADFF8E8060A
:105A3000D0ED000A30EE200ADFF8C406D0ED000AEF
:105A400030EE200ADFF8E00680ED000ADFF8D0062D
:105A500090ED000ADFF8C406D0ED000A30EE600ACF
:105A6000DFF8C80680ED000ADFF8BC0690ED000AFA
:105A7000DFF8B006D0ED000A30EE600ADFF8B006BD
:105A800080ED000ADFF8940690ED000ADFF89C062E
:105A9000D0ED000A30EE200ADFF8800680ED000A23
:105AA000DFF8800690ED000ADFF88406D0ED000AEA
:105AB00030EE200ADFF86C0680ED000ADFF874068D
:105AC000DFF8581609680160DFF86C06DFF8541635
:105AD00009680160704780B500F024FAFAF79CFC71
:105AE000FCF7EEFEDFF8540690ED000ADFF85006F2
:105AF000D0ED000A30EE200ADFF8400680ED000A03
:105B000001BD000001009643000096C3580EFF1F20
:105B1000EC0EFF1FF00EFF1FDFF8200690ED000ACD
:105B2000F7EE000A80EE200ADFF8140680ED000A86
:105B3000DFF8080600210160DFF8040690ED000A96
:105B4000DFF80006D0ED000A30EE600ADFF8F80555
:105B500080ED000ADFF8EC05DFF8E4150968016064
:105B6000DFF8DC0590ED000ADFF8E005D0ED000A73
:105B700020EE200ADFF8D005D0ED000ADFF8D005CE
:105B800090ED001A00EE810ADFF8C80580ED000AEA
:105B9000DFF8C40590ED000AB8EEC00ADFF8B405DE
:105BA000D0ED000AB4EE600AF1EE10FA09D5DFF884
:105BB000A80590ED000AB8EEC00ADFF8980580ED60
:105BC000000ADFF8980590ED000AB8EEC00ADFF889
:105BD0008405D0ED000AF4EE400AF1EE10FA09D582
:105BE000DFF8780590ED000AB8EEC00ADFF864052A
:105BF00080ED000ADFF8480500210160DFF860054C
:105C0000DFF8501509680160704700000000F03FA0
:105C1000680EFF1F600EFF1F0080664080B5DFF832
:105C2000B40490ED000ADFF80C05D0ED000A30EE68
:105C3000200ADFF82C05D0ED000A30EE200ADFF84C
:105C4000240580ED000ADFF88C0490ED000ADFF8EF
:105C5000E804D0ED000A30EE200ADFF80405D0EDAC
:105C6000000A30EE600ADFF8000580ED000ADFF878
:105C7000FC04DFF8F01409680160DFF8F404DFF8D1
:105C8000E81409680160DFF8E40490ED000ADFED34
:105C9000940AB4EE600AF1EE10FA04DBDFF8CC04EB
:105CA000DFF8D0140160DFF8C40490ED000ADFEDE6
:105CB0008D0AB4EE600AF1EE10FA03D5DFF8AC04F9
:105CC00088490160DFF8A80490ED000ADFED840A3E
:105CD000B4EE600AF1EE10FA04DBDFF89404DFF8AA
:105CE00094140160DFF8880490ED000ADFED7D0A6E
:105CF000B4EE600AF1EE10FA03D5DFF874047949C6
:105D00000160DFF874040088012808D1DFF85C0422
:105D100000210160DFF8580400210160FEE7DFF890
:105D20005004D0ED000ADFF8440490ED000A00F0C2
:105D30000DF801BD180AD80E46EC533F5839B4C8C7
:105D400076BEEF3F00AAF1D24D62803F80B52DEDC7
:105D5000028BB0EE408AF0EE608AB5EE408AF1EE3A
:105D600010FA15DDDFF8140480ED008A002204210A
:105D7000002000F02DFFDFF8040490ED000ABCEED7
:105D8000C00A10EE102A0621002000F021FF16E0C4
:105D9000DFF8E80380ED008A00220621002000F0F1
:105DA00017FFDFF8D80390ED000AB1EE400ABCEE11
:105DB000C00A10EE102A0421002000F009FFF5EEC1
:105DC000408AF1EE10FA15DDDFF8B403C0ED008A69
:105DD00000220721002000F0FBFEDFF8A40390ED75
:105DE000000ABCEEC00A10EE102A0521002000F0C7
:105DF000EFFE16E0DFF88803C0ED008A00220521DF
:105E0000002000F0E5FEDFF8780390ED000AB1EE27
:105E1000400ABCEEC00A10EE102A0721002000F054
:105E2000D7FEBDEC028B01BD80B5DFF858030088BA
:105E3000B0F5FA7F07DADFF84C030088401CDFF882
:105E4000441308803BE0DFF83C030088B0F5FA7F9C
:105E500035D1DFF83403416800680122DFF82C33C4
:105E600001F002F809D8DFF8200341680068002239
:105E7000DFF81C3301F010F813D3DFF80C0341688E
:105E800000680022DFF80C3301F006F817D2DFF8C3
