:10000000F8FF002011040000DB5D0000DB5D000054
:10001000DB5D0000DB5D0000DB5D0000DB5D000000
:10002000DB5D0000DB5D0000DB5D0000DB5D0000F0
:10003000DB5D0000DB5D0000DB5D0000DB5D0000E0
:10004000DB5D0000DB5D0000DB5D0000DB5D0000D0
:10040000FFFFFFFFFFFFFFFFFFFFFFFFFEFFFFFFFD
:1004100062B60EF0D7FBFEE780B50020DFF8581873
:1004200008800020DFF8541808800020DFF8301E14
:1004300008800020DFF82C1E08800020DFF8281E2E
:1004400008800020DFF8381808800020DFF8341812
:1004500008800020DFF8301808800020DFF82C1812
:1004600008800020DFF8281808800020DFF8241812
:1004700008800020DFF8201808800020DFF81C1812
:1004800008800020DFF8181808800020DFF8141812
:1004900008800020DFF8101808800020DFF80C1812
:1004A00008800020DFF8081808800020DFF8041812
:1004B00008800020DFF8001808800020DFF8FC1713
:1004C00008800020DFF8F81708800020DFF8F41714
:1004D00008800020DFF8F01708800020DFF8EC1714
:1004E00008800020DFF8E81708800020DFF8E41714
:1004F00008800020DFF8E01708800020DFF8DC1714
:1005000008800020DFF8D81708800020DFF8D41713
:1005100008800020DFF8D01708800020DFF8CC1713
:1005200008800020DFF8C81708600020DFF8C41733
:1005300008600020DFF8C01708600020DFF8BC1753
:1005400008600020DFF8B81708800020DFF8B41733
:1005500008800020DFF8B01708800020DFF8AC1713
:1005600008800020DFF8A81708800020DFF8A41713
:1005700008800020DFF8A01708800020DFF89C1713
:1005800008800020DFF8981708800020DFF8941713
:1005900008800020DFF8901708800020DFF88C1713
:1005A00008800020DFF8881708800020DFF8841713
:1005B00008800020DFF8801708800020DFF87C1713
:1005C00008800020DFF8781708800020DFF8741713
:1005D00008800020DFF8701708800020DFF86C1713
:1005E00008800020DFF8681708800020DFF8641713
:1005F00008800020DFF8601708803B20DFF85C17D8
:100600000860DFF8580700683B28C0F2988028206F
:10061000DFF84C170860DFF84807006802283EDB67
:10062000DFF8900DDFF834170968502202FB010053
:10063000DFF82C170968085CFF2824D1DFF8740D57
:10064000DFF818170968502202FB0100DFF81017C5
:100650000968081810F8010C002814D1DFF8540DAF
:10066000DFF8F8160968502202FB0100DFF8F016E7
:100670000968081810F8020C002804D10020DFF8DF
:10068000E41608800BE00120DFF8D8160880DFF8B8
:10069000D0060068401EDFF8C8160860BBE72920B6
:1006A000DFF8BC160860DFF8B80600684F283EDAAD
:1006B000DFF8000DDFF8A4160968502202FB0100E4
:1006C000DFF89C160968085C002824D1DFF8E40CE8
:1006D000DFF888160968502202FB0100DFF8801657
:1006E0000968081810F8010CFF2814D1DFF8C40CB1
:1006F000DFF868160968502202FB0100DFF8601677
:100700000968081810F8020CFF2804D10020DFF84F
:10071000E01D08800BE00120DFF8D41D0880DFF821
:1007200040060068401CDFF838160860BBE7DFF8B9
:100730002C060068401EDFF82416086061E72D20B3
:10074000DFF818160860DFF8140600682D28C0F2DC
:1007500098802820DFF808160860DFF80406006893
:1007600002283EDBDFF84C0CDFF8F0150968502258
:1007700002FB0100DFF8E8150968085CFF2824D1B6
:10078000DFF8300CDFF8D4150968502202FB0100B5
:10079000DFF8CC150968081810F8010C002814D1EE
:1007A000DFF8100CDFF8B4150968502202FB0100D5
:1007B000DFF8AC150968081810F8020C002804D1FD
:1007C0000020DFF8301D08800BE00120DFF8241D39
:1007D0000880DFF88C050068401EDFF8841508608B
:1007E000BBE72920DFF878150860DFF8740500689A
:1007F0004F283EDADFF8BC0BDFF86015096850229D
:1008000002FB0100DFF858150968085C002824D1B4
:10081000DFF8A00BDFF844150968502202FB010045
:10082000DFF83C150968081810F8010CFF2814D1EE
:10083000DFF8800BDFF824150968502202FB010065
:10084000DFF81C150968081810F8020CFF2804D1FD
:100850000020DFF8A41C08800BE00120DFF8981CC2
:100860000880DFF8FC040068401CDFF8F41408601E
:10087000BBE7DFF8E8040068401EDFF8E01408601A
:1008800061E71E20DFF8D4140860DFF8D0040068A8
:100890001E28C0F298802820DFF8C4140860DFF812
:1008A000C004006802283EDBDFF8080BDFF8AC1458
:1008B0000968502202FB0100DFF8A4140968085CF3
:1008C000FF2824D1DFF8EC0ADFF8901409685022E1
:1008D00002FB0100DFF888140968081810F8010C01
:1008E000002814D1DFF8CC0ADFF870140968502210
:1008F00002FB0100DFF868140968081810F8020C00
:10090000002804D10020DFF8F41B08800BE0012050
:10091000DFF8E81B0880DFF848040068401EDFF8B5
:1009200040140860BBE72920DFF834140860DFF8C2
:10093000300400684F283EDADFF8780ADFF81C142C
:100940000968502202FB0100DFF814140968085CF2
:10095000002824D1DFF85C0ADFF80014096850226F
:1009600002FB0100DFF8F8130968081810F8010C01
:10097000FF2814D1DFF83C0ADFF8E01309685022A1
:1009800002FB0100DFF8D8130968081810F8020C00
:10099000FF2804D10020DFF8681B08800BE001204D
:1009A000DFF85C1B0880DFF8B8030068401CDFF844
:1009B000B0130860BBE7DFF8A4030068401EDFF84F
:1009C0009C13086061E70F20DFF890130860DFF8E0
:1009D0008C0300680F28C0F288802820DFF880137D
:1009E0000860DFF87C03006802283ADBDFF8C409FE
:1009F000DFF868130968502202FB0100DFF860137A
:100A00000968085CFF2822D1DFF8A809DFF84C1339
:100A10000968502202FB0100DFF844130968081836
:100A200010F8010C002812D1DFF88809CB490968B9
:100A3000502202FB0100CA490968081810F8020C8C
:100A4000002804D10020DFF8BC1A088009E001204A
:100A5000DFF8B01A0880C2480068401EC04908602C
:100A6000BFE72920BE490860BD4800684F2836DA34
:100A7000DFF84009B9490968502202FB0100B84972
:100A80000968085C002820D1DFF82809B349096803
:100A9000502202FB0100B2490968081810F8010C45
:100AA000FF2812D1DFF80C09AC490968502202FB7B
:100AB0000100AB490968081810F8020CFF2804D19E
:100AC0000020DFF8441A088009E00120DFF8381A16
:100AD0000880A3480068401CA1490860C4E79F48FB
:100AE0000068401E9D49086071E701209B4908602D
:100AF0009A4800680128C0F282802820984908603E
:100B000097480068022836DBDFF8A808934909688F
:100B1000502202FB010092490968085CFF2820D19D
:100B2000DFF890088D490968502202FB01008C49CA
:100B30000968081810F8010C002812D1DFF87408B1
:100B400086490968502202FB010085490968081896
:100B500010F8020C002804D10020DFF8781D08806E
:100B600009E00120DFF86C1D08807D480068401E08
:100B70007B490860C4E72920794908607848006803
:100B80004F2836DADFF82C0874490968502202FB36
:100B9000010073490968085C002820D1DFF81408B7
:100BA0006E490968502202FB01006D490968081866
:100BB00010F8010CFF2812D1DFF8F807674909681F
:100BC000502202FB010066490968081810F8020C5F
:100BD000FF2804D10020DFF8001D088009E0012073
:100BE000DFF8F41C08805E480068401C5C4908601F
:100BF000C4E75A480068401E5849086078E700205A
:100C000056490860554800683B2815DADFF8A40704
:100C100052490968502202FB010090F82800002880
:100C200004D117480088401C154908804B480068CB
:100C3000401C4A490860E5E73B20484908604748AE
:100C400000680128C0F29080DFF86807434909680E
:100C5000502202FB010090F82800FF2840F0848019
:100C600008480088401C074908803C480068401E2E
:100C70003A490860E3E700BFAE34FF1FB034FF1FFE
:100C8000BC34FF1FBE34FF1FB234FF1FB434FF1F3C
:100C90005634FF1F5834FF1F5A34FF1F5C34FF1FA8
:100CA0005E34FF1F6034FF1F6234FF1FD434FF1F08
:100CB000D634FF1FC434FF1FC634FF1FD834FF1FB4
:100CC0007034FF1F7234FF1F7434FF1F7634FF1F10
:100CD0007834FF1F7A34FF1F7C34FF1F7E34FF1FE0
:100CE0008034FF1F8234FF1F8434FF1F8634FF1FB0
:100CF0006419FF1F6819FF1F6C19FF1F7019FF1F70
:100D00003A34FF1F3C34FF1F3E34FF1F4034FF1FA7
:100D10004234FF1F4434FF1F4634FF1F4834FF1F77
:100D20000E34FF1F1034FF1F1A34FF1FC034FF1F83
:100D30004A34FF1F4C34FF1F4E34FF1F5034FF1F37
:100D4000C234FF1F6434FF1F6634FF1F6834FF1F67
:100D50006A34FF1F6C34FF1F6E34FF1F6C14FF1FBB
:100D60007014FF1F2634FF1F02F030F901F0B0FFAE
:100D700002F008FFDFF8E8040088002808D0DFF858
:100D8000E4040088002803D00120DFF8DC14088088
:100D90003720DFF8E41C0860DFF8DC0C00682D2841
:100DA000C0F23E823B20DFF8D41C0860DFF8CC0C98
:100DB0000068022874DBDFF8FC05DFF8BC1C09685A
:100DC000502202FB0100DFF8B41C0968085CFF2810
:100DD0004FD1DFF8E005DFF8A01C0968502202FBC4
:100DE0000100DFF8981C0968081810F8010C0028A9
:100DF0003FD1DFF8C005DFF8801C0968502202FBF4
:100E00000100DFF8781C0968081810F8020C0028A7
:100E10002FD1DFF8A005DFF8601C0968502202FB23
:100E20000100DFF8581C096808184078FF2820D115
:100E3000DFF8480C0068DFF8481CDFF83C2C12682B
:100E400041F82200DFF8380CDFF82C1C096850F854
:100E50002100DFF8301C08600020DFF82C1C08801F
:100E60000020DFF8281CDFF8102C126841F822005F
:100E700016E0DFF8140C0088401CDFF80C1C08801A
:100E80000120DFF8081CDFF8F02B126841F822007F
:100E9000DFF8E80B0068401EDFF8E01B086085E71C
:100EA0001420DFF8D81B0860DFF8D00B00684F284B
:100EB00074DADFF80005DFF8C01B0968502202FB76
:100EC0000100DFF8B81B0968085C00284FD1DFF883
:100ED000E404DFF8A41B0968502202FB0100DFF8DC
:100EE0009C1B0968081810F8010CFF283FD1DFF897
:100EF000C404DFF8841B0968502202FB0100DFF8FC
:100F00007C1B0968081810F8020CFF282FD1DFF8A5
:100F1000A404DFF8641B0968502202FB0100DFF81B
:100F20005C1B096808184078002820D1DFF84C0BBA
:100F30000068DFF85C1BDFF8402B126841F82200E4
:100F4000DFF84C0BDFF8301B096850F82100DFF8A0
:100F5000441B08600020DFF8401B08800020DFF8F9
:100F60003C1BDFF8142B126841F8220016E0DFF872
:100F7000280B0088401CDFF8201B08800120DFF8C8
:100F80001C1BDFF8F42A126841F82200DFF8EC0A93
:100F90000068401CDFF8E41A086085E7DFF8F00A13
:100FA000DFF8D41A096850F82100DFF8D41ADFF806
:100FB000C82A126851F82210401A142807DA0120B2
:100FC000DFF8C41A08800120DFF8CC1A0880DFF8A7
:100FD000B80A0088002818D1DFF8BC0A0088002869
:100FE00013D0DFF8BC0A008800280ED1DFF8B40A5D
:100FF000DFF8841A096850F82100DFF8941ADFF846
:10100000782A126841F8220053E0DFF87C0A008851
:10101000002818D0DFF8800A0088002813D1DFF8F4
:10102000800A008800280ED1DFF87C0ADFF8481A11
:10103000096850F82100DFF8481ADFF83C2A1268E6
:1010400041F8220035E0DFF8400A0088002830D05F
:10105000DFF8440A008800282BD0DFF8500A008807
:10106000002826D1DFF86C0D0088401CDFF8641DD5
:1010700008800120DFF8601D0880DFF8340ADFF8FF
:10108000F819096850F82100DFF8F419DFF8E829A9
:10109000126841F82200DFF81C0ADFF8DC19096841
:1010A00050F82100DFF8E819DFF8CC29126841F880
:1010B0002200DFF8C4090068362880F29080DFF84B
:1010C000F8090088032800F08A80DFF8B409DFF807
:1010D000A819096850F82100DFF8A419DFF8982949
:1010E000126811EB82014968401A052810DBDFF80D
:1010F0009009DFF88419096810EB81004068801CB2
:10110000DFF87C19DFF87029126841F8220021E02D
:10111000DFF86C09DFF86019096810EB810040689E
:10112000DFF85C19DFF85029126851F82210401AD4
:1011300005280FDBDFF84809DFF83C19096810EBD8
:1011400081004068801EDFF83819DFF82C2912680A
:1011500041F82200DFF83809DFF81C19096850F857
:101160002100DFF82C19DFF81029126811EB820139
:101170004968401A052810DBDFF81409DFF8F81871
:10118000096810EB81004068801CDFF80419DFF863
:10119000E828126841F8220021E0DFF8F408DFF8BF
:1011A000D818096810EB81004068DFF8E418DFF810
:1011B000C828126851F82210401A05280FDBDFF802
:1011C000D008DFF8B418096810EB81004068801E71
:1011D000DFF8BC18DFF8A028126841F82200DFF819
:1011E000A008DFF89418096850F82100DFF8A0186B
:1011F000DFF88428126851F822100818022190FBA9
:10120000F1F0DFF8AC1CDFF87028126821F812004A
:10121000DFF864080068401EDFF85C180860BBE572
:101220002E20DFF854180860DFF84C080068052805
:10123000C0F24484DFF880080088032800F0F381BE
:10124000DFF8700C0088142880F2ED81DFF85C086C
:101250000088002840F0E781DFF8940D06E000BF29
:10126000B634FF1FB834FF1FBA34FF1F00880028B0
:1012700040F0D981DFF87C0DB0F9000010281BDAAE
:10128000DFF80808D0F8D800012805D1DFF80C08ED
:10129000D0F8D80001280FD0DFF85C0D00880028B6
:1012A00004D0DFF8540D00880A2805DBDFF8280B8E
:1012B0000088002800F0B7812820DFF8C0170860F8
:1012C000DFF8B80700680628C0F283803948DFF8E5
:1012D000A8170968502202FB0100DFF8A01709686F
:1012E000085CFF285AD13348DFF88C170968502270
:1012F00002FB0100DFF884170968081810F8010CD8
:1013000000284BD12B48DFF870170968502202FBE8
:101310000100DFF868170968081810F8020C0028A7
:101320003CD12448DFF850170968502202FB010025
:10133000DFF84817096808184078FF282ED11D48A3
:10134000DFF834170968502202FB0100DFF82C1780
:10135000096808188078FF2820D1DFF82007006886
:10136000DFF81C17DFF81027126841F82200DFF8B9
:101370001007DFF80417096850F82100DFF8041798
:1013800008600020DFF8001708800020DFF8FC1656
:10139000DFF8E426126841F822001AE0DFF8E806D8
:1013A0000088401CDFF8E01608800120DFF8DC161A
:1013B00002E000BF8020FF1FDFF8BC26126841F862
:1013C0002200DFF8B8060068401EDFF8B01608609B
:1013D00076E72820DFF8A4160860DFF8A00600688A
:1013E0004B2880F29380DFF8140CDFF88C16096824
:1013F000502202FB0100DFF884160968085C00280F
:101400005ED1DFF8F80BDFF870160968502202FB96
:101410000100DFF868160968081810F8010CFF28A9
:101420004ED1DFF8D80BDFF850160968502202FBC6
:101430000100DFF848160968081810F8020CFF28A8
:101440003ED1DFF8B80BDFF830160968502202FBF6
:101450000100DFF8281609680818407800282FD105
:10146000DFF8980BDFF810160968502202FB010024
:10147000DFF80816096808188078002820D1DFF8FE
:10148000FC050068DFF80816DFF8EC25126841F863
:101490002200DFF8FC05DFF8E015096850F82100AC
:1014A000DFF8F01508600020DFF8EC150880002058
:1014B000DFF8E815DFF8C025126841F8220025E0C2
:1014C000DFF8D4050088401CDFF8CC150880012027
:1014D000DFF8C815DFF8A025126841F82200DFF810
:1014E0009C050068401CDFF89415086075E700BF94
:1014F0002434FF1F2A34FF1F2834FF1F2E34FF1F00
:101500002C34FF1F3234FF1F3034FF1FDFF8780503
:10151000008800281AD1DFF880050088002815D03F
:10152000DFF87C050088002810D1DFF85405DFF8CB
:101530004815096850F82100D0F15000DFF8501527
:10154000DFF83425126841F8220052E0DFF8380550
:10155000008800281BD0DFF840050088002816D13D
:10156000DFF83C050088002811D1DFF82405DFF8FA
:101570000815096850F82100D0F128002830DFF85C
:101580000015DFF8F424126841F8220031E0DFF89A
:10159000F804008800282CD0DFF8FC04008800281C
:1015A00027D0DFF808050088002822D1DFF82408BA
:1015B0000088401CDFF81C180880DFF8F404DFF80E
:1015C000B814096850F82100DFF8B414DFF8A82433
:1015D000126841F82200DFF8DC04DFF89C14096887
:1015E00050F82100DFF8A814DFF88C24126841F8C5
:1015F0002200DFF88C04DFF88014096850F821001D
:10160000DFF88C14DFF87024126851F822100818E3
:10161000022190FBF1F0DFF89818DFF85C241268E3
:1016200021F8120008E2DFF85804DFF84C140968CA
:1016300010EB810040681438DFF8541A0860DFF8B6
:101640004004DFF83414096810EB8100406814305E
:10165000DFF8401A0860DFF8380A0068032803DA68
:101660000320DFF82C1A0860DFF8280A00684E28EB
:1016700003DB4D20DFF81C1A0860DFF8180A006849
:10168000DFF8F8130860DFF8080A0068DFF8EC13E9
:101690000968884280F28180DFF86009DFF8D8139A
:1016A0000968502202FB0100DFF8D0130968085CCA
:1016B000FF285ED1DFF84409DFF8BC130968502227
:1016C00002FB0100DFF8B4130968081810F8010CD8
:1016D00000284ED1DFF82409DFF89C130968502256
:1016E00002FB0100DFF894130968081810F8020CD7
:1016F00000283ED1DFF80409DFF87C130968502286
:1017000002FB0100DFF87413096808184078FF280D
:101710002FD1DFF8E808DFF860130968502202FBD8
:101720000100DFF85813096808188078FF2820D1D5
:10173000DFF848030068DFF84813DFF83C2312683D
:1017400041F82200DFF83803DFF82C13096850F85D
:101750002100DFF8301308600020DFF82C13088028
:101760000020DFF82813DFF81023126841F8220068
:1017700013E0DFF814030088401CDFF80C13088026
:101780000120DFF80813BC4A126841F82200BB4868
:101790000068401EB949086075E7BD48B649096848
:1017A00010EB810040681438DFF8EC180860B84886
:1017B000B149096810EB810040681430DFF8DC188B
:1017C0000860DFF8D4080068032803DA0320DFF894
:1017D000C8180860DFF8C40800684E2803DB4D20F5
:1017E000DFF8B8180860DFF8B0080068A34908609F
:1017F000A2480068DFF8A418096888426EDADFF8AA
:10180000FC079D490968502202FB01009B490968B9
:10181000085C00284DD1DFF8E40797490968502299
:1018200002FB010095490968081810F8010CFF280F
:101830003FD1DFF8C80790490968502202FB010038
:101840008E490968081810F8020CFF2831D1DFF81A
:10185000AC0789490968502202FB010087490968E1
:1018600008184078002824D1DFF8900782490968D9
:10187000502202FB0100814909680818807800287D
:1018800017D17E48006882497B4A126841F82200DD
:101890007F487949096850F821007E490860002096
:1018A0007D49088000207D49734A126841F8220072
:1018B00014E079480088401C774908800120774966
:1018C0006D4A126841F822006C480068401C6B4960
:1018D00008608DE73634FF1F3434FF1F6A480088E4
:1018E00000281CD16C480088002818D16C4800885A
:1018F000002814D162486049096850F82100644901
:101900005D4A126851F822100818022190FBF1F08C
:10191000DFF89C15584A126821F812008CE05A48EA
:101920000088002824D15C480088002820D05C482A
:10193000008800281CD152484F49096850F82100FE
:10194000DFF85C174C4A126851F822100818DFF8CB
:101950006015494A126821F8120052484649096840
:1019600050F821004A49444A126841F8220063E0D5
:1019700045480088002824D047480088002820D106
:101980004748008800281CD141483B49096850F865
:101990002100DFF80C17384A126851F82210401A5B
:1019A000DFF80C15344A126821F812003E4832491B
:1019B000096850F8210032492F4A126841F8220084
:1019C0003AE031480088002836D0334800880028A3
:1019D00032D03648008800282ED1DFF8F80300887E
:1019E000401CDFF8F013088031482349096850F89B
:1019F00021002349204A126841F822002D481E493F
:101A0000096850F8210022491B4A126841F8220057
:101A10001B481949096850F821001D49164A1268E7
:101A200051F822100818022190FBF1F0DFF8801421
:101A3000114A126821F8120015480F49096850F838
:101A400021000F490C4A126851F8221088420BDA23
:101A500001200E49084A126841F8220001200F496E
:101A6000054A126841F8220003480068401E0249F6
:101A70000860FFF7D9BB00BF6C14FF1F7014FF1F75
:101A80004C17FF1F3C18FF1F0A34FF1F7C14FF1F59
:101A90004018FF1F3019FF1F0C34FF1F6C15FF1F6C
:101AA000E234FF1F6405FF1F7404FF1FC834FF1FCB
:101AB0005406FF1F4407FF1FE034FF1F02F01CFC09
:101AC00003F05EF9C3480088DFF828150880C24893
:101AD0000088002806D0DFF820050088401EDFF8C7
:101AE00018150880DFF810050088002806D10020AE
:101AF000B94908801E20DFF8001508803720DFF87C
:101B0000A8150860DFF8A00500680F28C0F20C8156
:101B1000DFF89805DFF89015096850F821000128D2
:101B200006D1DFF880050088401CDFF878150880B2
:101B3000DFF87C05DFF87015096850F821000128EE
:101B400006D1DFF870050088401CDFF868150880B2
:101B5000DFF85805DFF85015096850F82100012812
:101B60002FD1DFF84805DFF84015096810EB810038
:101B70004068002825D1DFF83405DFF82C15096806
:101B800010EB8100806800281BD1DFF82005DFF80A
:101B90001815096810EB810050F8040C012810D1C9
:101BA000DFF80805DFF80015096810EB810050F830
:101BB000080C012805D1DFF8F0040068DFF8F814FC
:101BC0000880DFF8E804DFF8E014096850F8210025
:101BD00001282FD1DFF8D404DFF8CC14096810EB0A
:101BE00081004068012825D1DFF8C004DFF8B8146F
:101BF000096810EB8100806801281BD1DFF8AC0474
:101C0000DFF8A414096810EB810050F8040C0028D8
:101C100010D1DFF89804DFF89014096810EB810008
:101C200050F8080C002805D1DFF87C040068DFF8C4
:101C30008C140880DFF87804DFF86C14096850F819
:101C4000210001282FD1DFF86804DFF85C1409684F
:101C500010EB81004068002825D1DFF85404DFF83C
:101C60004814096810EB8100806800281BD1DFF858
:101C70004004DFF83414096810EB810050F8040CBC
:101C8000012810D1DFF82804DFF81C14096810EBD4
:101C9000810050F8080C012805D1DFF80C04006819
:101CA000DFF81C140880DFF80804DFF8FC1309686B
:101CB00050F8210001282FD1DFF8F403DFF8E813F2
:101CC000096810EB81004068012825D1DFF8E003A6
:101CD000DFF8D413096810EB8100806801281BD15C
:101CE000DFF8CC03DFF8C013096810EB810050F86F
:101CF000040C002810D1DFF8B803DFF8AC13096832
:101D000010EB810050F8080C002805D1DFF898038B
:101D10000068DFF8B0130880DFF88C030068401E0D
:101D2000DFF884130860EDE6DFF878030088DFF859
:101D300098130880DFF87C030088DFF89013088090
:101D40005C480088032836DA5A480088002803D007
:101D50005848008800282ED0DFF87403B0F900003E
:101D6000002828D1DFF86C03B0F90000002822D148
:101D7000DFF86403B0F9000000281CD1DFF85C0331
:101D8000B0F90000002816D1DFF85403B0F90000C4
:101D9000002810D1DFF84C03B0F9000000280AD168
:101DA000DFF84403B0F90000002804D00020DFF879
:101DB0003C13088019E03F480088062815DB3D48A1
:101DC0000088282811DADFF810040088002808D1DC
:101DD000874803E01A34FF1FE434FF1F00880028FF
:101DE00003D00320DFF804130880DFF80403008821
:101DF00000280ED1DFF8F4020088032809D1DFF8AB
:101E0000EC020088DFF8EC1208800120DFF8E8120D
:101E10000880DFF8E4020088002811D0DFF8D4023F
:101E2000008803280CD1DFF8D4020088401EDFF8B8
:101E3000CC120880DFF8BC020088DFF8B0120880FE
:101E4000DFF8B402008800280AD0DFF8A402008876
:101E5000002805D0DFF89C020088DFF89012088087
:101E6000DFF878030088002806D0DFF870030088C8
:101E7000401EDFF868130880DFF880020088012820
:101E80000BD10020DFF8701208806420DFF86C129C
:101E900008800020DFF85C120880DFF8500200881C
:101EA000002809D0012808D0032807D009E000BF86
:101EB0005C16FF1FBC34FF1F03E002E000F028F9AE
:101EC000FFE7DFF828020088DFF82412088003F01B
:101ED00031F83720DFF8D0110860DFF8CC01006856
:101EE0000528C0F28480DFF8C001006837285FDA77
:101EF000DFF8B401006805285ADBDFF8F801008834
:101F0000032855D03B48B0F90000102850DADFF81C
:101F10009C01D0F8D800012805D1DFF89401D0F851
:101F2000D800012844D0DFF8D801DFF87C11096817
:101F300030F81100DFF8C811DFF86C21126811EBDE
:101F400042014988401A042810DBDFF8B401DFF8A9
:101F50005811096810EB41004088401CDFF8A011BF
:101F6000DFF84421126821F8120021E0DFF8900127
:101F7000DFF83411096810EB41004088DFF8801168
:101F8000DFF82421126831F81210401A04280FDB00
:101F9000DFF86C01DFF81011096810EB4100408890
:101FA000401EDFF85C11DFF80021126821F81200F2
:101FB000DFF84C01DFF8F010096830F8110003F089
:101FC00089F80022DFF83C3103F092F803F004F9BD
:101FD000DFF83411DFF8D020126821F81200DFF8A2
:101FE000C8000068401EDFF8C010086075E701BD3A
:101FF000D034FF1F1C34FF1F6A04FF1F8020FF1F07
:102000003720DFF8A4100860DFF89C00006805287E
:102010003DDBDFF8F800DFF890100968502202FB82
:102020000100DFF8DC10DFF88020126831F81210B0
:10203000081800214170DFF8D400DFF86C1009683F
:10204000502202FB0100DFF8B810DFF85C201268B4
:1020500031F8121000220A54DFF8B000DFF84810FF
:102060000968502202FB0100DFF89410DFF83820E5
:10207000126831F812100818002100F8011CDFF86E
:1020800028000068401EDFF820100860BCE7704799
:102090003419FF1F3819FF1F3C19FF1F4019FF1F7C
:1020A0003408FF1F0E34FF1F6C14FF1F7C14FF1F2A
:1020B0006C15FF1F1034FF1F1234FF1F1434FF1F55
:1020C0001634FF1F1834FF1F1E34FF1F2034FF1F5C
:1020D0002434FF1F2834FF1F2C34FF1F2634FF1F1A
:1020E0002A34FF1F2E34FF1FAC34FF1FDA34FF1FCA
:1020F000DC34FF1FE034FF1FDE34FF1F6804FF1FC6
:102100005C16FF1F00C043C0D416FF1F8020FF1FB6
:1021100010B5DFF8600B008800281FD1DFF8580BDE
:10212000B0F90000002819D0DFF8500BB0F900001A
:10213000002813D0DFF8480BB0F9000000280DD0BC
:10214000DFF8400BB0F90000002807D022480088D3
:10215000002803D00120DFF81C1B0880DFF8140BD7
:102160000088012805D0DFF8200B0088002800F047
:102170006B84DFF8040BB0F90000002805D0DFF80D
:10218000FC0AB0F9000000280DD1DFF8F40AB0F91C
:102190000000002800F07682DFF8E80AB0F90000BD
:1021A000002800F06F820C480088002800F06A8246
:1021B0000120DFF8D81A088008480088002810D1CC
:1021C000DFF8CC0A0088401CDFF8C41A08804FF4FE
:1021D0007A70024904E000BFCA34FF1FCE34FF1FEB
:1021E0000880DFF8B00A0088002840F02481DFF87A
:1021F000880AB0F90000002805D0DFF8800AB0F99D
:102200000000002807D13B20DFF86C1A0880282046
:10221000DFF8681A0880DFF8800AB0F900000A3099
:10222000DFF8581AB1F90010401A03F001F8040061
:10223000DFF8680AB0F90000DFF83C1AB1F90010C5
:10224000401A02F0F5FF0100200003F01BF8DFF850
:10225000501A0860DFF8400AB0F90000DFF81C1AD5
:10226000B1F9001008180A30022190FBF1F002F0D9
:10227000DFFF0400DFF8000AB0F90000DFF81C1AE5
:10228000B1F90010081802F0D3FFDFF8141A09683A
:1022900003F076F85FF0804102F0F4FF01002000C7
:1022A00003F0DAF8DFF8A41C0860DFF8F009B0F9F1
:1022B0000000C01EDFF8B8190860DFF8B409006834
:1022C000DFF8B419B1F90010C91C884280F2BF834D
:1022D000DFF89C09006802F0ABFFDFF8C419096859
:1022E00003F04EF8DFF8641C096803F029F90400D4
:1022F000DFF8B009B0F9000002F09AFF210003F006
:102300001FF903F05FF9DFF86419DFF86429126838
:1023100041F822002820DFF890190860DFF88809CA
:1023200000684E2866DADFF88409DFF84419096886
:10233000502202FB0100DFF870190968085C0028D0
:1023400048D1DFF86809DFF828190968502202FB34
:102350000100DFF85419096808184078002839D1BD
:10236000DFF84809DFF808190968502202FB01006C
:10237000DFF8341909680818807800282AD1DFF8B6
:102380002C09DFF8EC180968502202FB0100DFF885
:1023900018190968081810F8010CFF281AD1DFF87D
:1023A0000C09DFF8CC180968502202FB0100DFF8A5
:1023B000F8180968081810F8020CFF280AD1DFF88D
:1023C000E8080068DFF8D416DFF8A428126841F89E
:1023D00022000FE05020DFF8C416DFF894281268BE
:1023E00041F82200DFF8C0080068401CDFF8B81888
:1023F000086093E7DFF87408DFF87418096850F88C
:102400002100DFF89816DFF86828126851F82210CA
:102410000818022190FBF1F0DFF8341BDFF8502898
:10242000126821F81200DFF848080068401CDFF845
:102430004018086041E7DFF85C080088012840F098
:102440000683DFF83C08B0F90000002805D0DFF86B
:102450003408B0F90000002807D13B20DFF820182D
:1024600008802820DFF81C180880DFF82C08B0F955
:1024700000000A38DFF80C18B1F90010401A02F019
:10248000D7FE0400DFF81408B0F90000DFF8F017F9
:10249000B1F90010401A02F0CBFE0100200002F05A
:1024A000F1FEDFF8B01A0860DFF8EC07B0F90000C1
:1024B000DFF8D017B1F9001008180A38022190FB94
:1024C000F1F002F0B5FE0400DFF8B407B0F9000047
:1024D000DFF8C817B1F90010081802F0A9FEDFF8FC
:1024E000741A096802F04CFF5FF0804102F0CAFEE6
:1024F0000100200002F0B0FFDFF85C1A08600F2036
:10250000DFF86C170860DFF868070068DFF87017FD
:10251000B1F90010C91C884280F29982DFF8500797
:10252000006802F085FEDFF82C1A096802F028FF27
:10253000DFF8241A096803F003F80400DFF86407E1
:10254000B0F9000002F074FE0100200002F084FFE8
:1025500003F038F8DFF84415DFF81427126841F863
:1025600022000220DFF840170860DFF83C0700680F
:10257000282866DADFF83407DFF8F41609685022F5
:1025800002FB0100DFF820170968085C002848D129
:10259000DFF81807DFF8D8160968502202FB01009F
:1025A000DFF804170968081810F8010C002838D162
:1025B000DFF8F806DFF8B8160968502202FB0100C0
:1025C000DFF8E4160968081810F8020C002828D172
:1025D000DFF8D806DFF898160968502202FB0100E0
:1025E000DFF8C416096808184078FF2819D1DFF809
:1025F000BC06DFF87C160968502202FB0100DFF8F8
:10260000A816096808188078FF280AD1DFF898060C
:102610000068DFF85816DFF85826126841F82200E3
:102620000FE00020DFF84416DFF84426126841F876
:102630002200DFF874060068401CDFF86C160860A2
:1026400093E7DFF82806DFF82816096850F821001C
:10265000DFF84814DFF81826126851F8221008181D
:10266000022190FBF1F0DFF8E818DFF80426126889
:1026700021F81200DFF8F8050068401CDFF8F015BB
:10268000086040E7DFF8F005B0F90000002805D049
:10269000DFF8E805B0F9000000280BD1DFF8E0050D
:1026A000B0F9000000280AD0DFF8D805B0F9000022
:1026B000002804D0DFF8D0050088002821D1DFF8F9
:1026C0009C08B0F90000002800F0B981DFF89008FC
:1026D000B0F90000002800F0B281DFF88808B0F9F6
:1026E0000000002800F0AB81DFF87C08B0F90000A2
:1026F000002800F0A481DFF890050088002800F091
:102700009E810020DFF884150880DFF888050088A6
:10271000002840F0C980DFF86005B0F9000000280B
:1027200005D0DFF85805B0F90000002807D13B209C
:10273000DFF8441508802820DFF840150880DFF80E
:102740004005B0F90000002805D0DFF83805B0F9E1
:102750000000002807D13520DFF824150880462026
:10276000DFF820150880DFF83005B0F90000DFF849
:102770000C15B1F90010401A02F05AFD0400DFF800
:102780001C05B0F90000DFF8F814B1F90010401A88
:1027900002F04EFD0100200002F074FDDFF800158C
:1027A0000860DFF8F404B0F90000DFF8D014B1F9E4
:1027B00000100818022190FBF1F002F039FD04002E
:1027C000DFF8BC04B0F90000DFF8D014B1F9001054
:1027D000081802F02DFDDFF8C814096802F0D0FDDA
:1027E0005FF0804102F04EFD0100200002F034FE57
:1027F000DFF858170860DFF8A404B0F90000801F64
:10280000DFF86C140860DFF868040068DFF8701403
:10281000B1F90010891D884280F21981DFF8500457
:10282000006802F005FDDFF87814096802F0A8FDE1
:10283000DFF81817096802F083FE0400DFF864046B
:10284000B0F9000002F0F4FC210002F079FEDFF89C
:102850001C1702F075FE02F0B5FEDFF81014DFF869
:102860001024126841F82200DFF80004DFF8001499
:10287000096850F821008949DFF8F423126851F8FB
:1028800022100818022190FBF1F0DFF8C416DFF8DF
:10289000E023126821F81200DFF8D4030068401C1E
:1028A000DFF8CC130860AEE7DFF8E8030088012802
:1028B00040F0CD80DFF8C803B0F90000002805D053
:1028C000DFF8C003B0F90000002807D13B20DFF893
:1028D000B01308802820DFF8AC130880DFF89803D5
:1028E000B0F90000002805D0DFF89003B0F900002F
:1028F000002807D13520DFF8801308800A20DFF890
:102900007C130880DFF89003B0F90000DFF874133F
:10291000B1F90010401A02F08BFC0400DFF87C03D0
:10292000B0F90000DFF85013B1F90010401A02F0BE
:102930007FFC0100200002F0A5FCDFF818160860FB
:10294000DFF85403B0F90000DFF83813B1F90010D4
:102950000818022190FBF1F002F06AFC0400DFF895
:102960001803B0F90000DFF83413B1F900100818AB
:1029700002F05EFCDFF8DC15096802F001FD5FF093
:10298000804102F07FFC0100200002F065FDDFF8CD
:10299000C8150860DFF80403B0F90000801FDFF8F5
:1029A000D0120860DFF8C8020068DFF8CC12B1F975
:1029B0000010891D88424ADADFF8B402006802F08C
:1029C00037FCDFF89015096802F0DAFCDFF88815AB
:1029D000096802F0B5FD0400DFF8C802B0F9000094
:1029E00002F026FC0100200002F036FDDFF8801521
:1029F00002F0A6FD02F0E6FD2849DFF87422126815
:102A000041F822009948DFF86812096850F821005F
:102A10002249DFF85C22126851F8221008180221BE
:102A200090FBF1F0DFF82815DFF84422126821F856
:102A300012008F480068401C8D490860B2E70020F2
:102A4000DFF84812088002E0002090490880894899
:102A50000088012806D1DFF81C050088401EDFF839
:102A600014150880DFF80C050088012815D1002016
:102A7000804908803C20DFF8FC1408800020DFF843
:102A8000D41408600020DFF8D014086000208449C6
:102A900008600020DFF8B414086010BD4018FF1F64
:102AA00038B57A480088002803D177480088002884
:102AB00007D0DFF8C4040088C01EDFF8C014088007
:102AC00005E0DFF8B4040088DFF8B0140880DFF810
:102AD000AC04B0F90000401D65490860DFF89C04B3
:102AE000B0F90000401F6249096888425EDA5F4819
:102AF0005F49096850F8210010F11E0F06DA7FF0D7
:102B00001D005A495A4A126841F82200DFF8700441
:102B10005749096850F821006F2806DB6E20DFF85E
:102B20006014534A126841F82200DFF82404504927
:102B3000096830F81100502806DB4F20DFF8101428
:102B40004B4A126821F81200DFF80404484909686A
:102B500030F81100002806D10120DFF8F413444AB0
:102B6000126821F81200DFF82804006802F04CFD1A
:102B700004000D00DFF8D8033D49096830F8110062
:102B800002F0A8FA0022DFF8FC3302F0B1FA2200CA
:102B90002B0002F0ADFA02F05FFDDFF8F4130860DD
:102BA00033480068401E3249086097E7DFF8E003C9
:102BB000006802F029FDDFF8D023DFF8D03302F0FF
:102BC00093FD02F049FDDFF8C8130860DFF8C40385
:102BD0000078002848D0DFF8C0030068DFF8BC1395
:102BE00002F054FE04D9DFF8B803008800280DD0A5
:102BF000DFF8B003B0F90000B0F5C87F06DADFF8FF
:102C0000A4030088401CDFF89C130880DFF88803C9
:102C10000068DFF8941302F04BFE25D2DFF884033E
:102C2000B0F90000B0F5C77F1EDADFF88003008836
:102C300000280AD1DFF858030168DFF8740302F0B6
:102C40007FFCDFF84C1308600EE0DFF860030088BB
:102C5000012809D1DFF8380301685FF0814002F0F4
:102C60006FFCDFF82C13086031BD00004C17FF1F0C
:102C70006C14FF1FC834FF1F5634FF1F5834FF1F4A
:102C80005A34FF1F5C34FF1FD034FF1FD234FF1FA4
:102C9000CC34FF1FFA33FF1F6034FF1F5E34FF1F69
:102CA0005419FF1F2234FF1F7014FF1F8020FF1FC5
:102CB0000200501A012801DB080000E010007047F4
:102CC0000200501A012801DB100000E008007047E4
:102CD0000020DFF8E41208800F20DFF8E01208601F
:102CE000DFF8D802006832284FDADFF8CC0200881B
:102CF00000284AD10520DFF8C8120860DFF8C002BA
:102D000000684B282BDADFF8BC02DFF8B012096844
:102D1000502202FB0100DFF8A8120968085CFF28B6
:102D200015D1DFF8A002DFF894120968502202FBE7
:102D30000100DFF88C12096808184078002806D1D5
:102D4000DFF874020088401CDFF86C120880DFF89E
:102D500070020068401CDFF868120860CEE7DFF8F8
:102D600058020088072804DBDFF84C0200880C2892
:102D700003DB0020DFF840120880DFF84002006823
:102D8000801CDFF838120860AAE7DFF82C02008800
:102D9000082808DBDFF8200200880C2803DA01206D
:102DA000DFF8FC110880DFF8F8010088002806D061
:102DB000DFF814020088401CDFF80C120880DFF8EE
:102DC00008020088002800F0B880DFF8FC010088C5
:102DD000052880F2B2803220DFF8E0110860DFF8C9
:102DE000DC0100680B284FDBDFF8C801DFF8CC11ED
:102DF000096810EB81004068401FDFF8C4110860CB
:102E0000DFF8BC0100685E49DFF8B021126811EB01
:102E10008201496888422FDADFF8A801DFF89C11A7
:102E20000968502202FB0100DFF894110968085C70
:102E3000002819D1DFF88C01DFF8801109685022D1
:102E400002FB0100DFF87811096808184078FF28B4
:102E50000AD1DFF86C010068DFF85811DFF85C2157
:102E6000126841F8220007E0DFF854010068401CB6
:102E7000DFF84C110860C3E7DFF840010068401E2E
:102E8000DFF838110860AAE73220DFF83011086057
:102E9000DFF8280100680B2857DB3948DFF81C11E0
:102EA000096810EB81004068401DDFF814110860CC
:102EB000DFF80001DFF80411096810EB81004068B9
:102EC000DFF8FC10096888422FDADFF8F800DFF835
:102ED000EC100968502202FB0100DFF8E4100968D9
:102EE000085C002819D1DFF8DC00DFF8D010096891
:102EF000502202FB0100DFF8C8100968081810F81A
:102F0000010CFF2809D1DFF8B80000681C49DFF880
:102F1000AC20126841F8220007E0DFF8A400006846
:102F2000401EDFF89C100860C2E7DFF890000068E0
:102F3000401EDFF888100860AAE70020DFF8601064
:102F400008800020DFF88010088070475819FF1FA4
:102F50005C16FF1F5C19FF1F6019FF1F2634FF1F3F
:102F60002434FF1F2A34FF1F2834FF1F0000904124
:102F7000000090C16604FF1F7204FF1F7004FF1F52
:102F80004018FF1F00C043C09A9999999999B93F79
:102F90006033FF1F0635FF1FF413FF1F0100484277
:102FA000E834FF1F3834FF1F00803B440834FF1F04
:102FB000000040C04C17FF1FE634FF1F6C14FF1FBA
:102FC0007014FF1F8020FF1F6C04FF1F80B50F20AF
:102FD000DFF8501B0860DFF84C0B00683B2862DA12
:102FE0000A20DFF8441B0860DFF83C0B0068282843
:102FF00051DADFF8380BDFF82C1B0968502202FB8E
:103000000100DFF8241B0968085C00283BD1DFF8C9
:103010001C0BDFF8101B0968502202FB0100DFF8CF
:10302000081B0968081810F8020C00282BD1DFF8DB
:10303000FC0ADFF8F01A0968502202FB0100DFF8F1
:10304000E81A096808188078FF281CD1DFF8DC0A24
:10305000DFF8D01A0968502202FB0100DFF8C81A15
:103060000968081810F8A00CFF280CD1DFF8B40A82
:103070000068DFF8BC1A0880DFF8AC0A0068DFF8E7
:10308000B41A088007E0DFF8A00A0068401CDFF8E7
:10309000981A0860A8E7DFF88C0A0068401CDFF87F
:1030A000841A086097E70F20DFF8781A0860DFF8C5
:1030B000740A00683B2862DA2820DFF86C1A08607E
:1030C000DFF8640A0068462851DADFF8600ADFF8A2
:1030D000541A0968502202FB0100DFF84C1A0968F3
:1030E000085C00283BD1DFF8440ADFF8381A096889
:1030F000502202FB0100DFF8301A0968081810F8A6
:10310000020CFF282BD1DFF8240ADFF8181A09680F
:10311000502202FB0100DFF8101A096808188078B5
:1031200000281CD1DFF8040ADFF8F81909685022DA
:1031300002FB0100DFF8F0190968081810F8A00C6C
:10314000FF280CD1DFF8DC090068DFF8EC190880F3
:10315000DFF8D4090068DFF8E419088007E0DFF839
:10316000C8090068401CDFF8C0190860A8E7DFF84C
:10317000B4090068401CDFF8AC19086097E7DFF875
:10318000B009B0F90000002800F0EF80DFF8A809CE
:10319000B0F90000002800F0E880DFF89809B0F9E5
:1031A0000000DFF884190860DFF87C090068012856
:1031B0001DDBDFF87809DFF87819B1F9001050222B
:1031C00011FB0200DFF860190968085C00280ED1C5
:1031D000DFF86C090088401CDFF864190880DFF80C
:1031E00048090068401EDFF840190860DCE7DFF896
:1031F0004409B0F90000DFF84819B1F90010401A8D
:10320000032803DA0120DFF83C190880DFF83009D1
:10321000B0F900000D2834DBDFF81809B0F9000020
:10322000DFF81C19B1F90010401ADFF81C1908600A
:10323000DFF8FC08B0F90000DFF810190860DFF8CB
:103240000C09006806281CDBDFF8E008DFF8FC1832
:103250000968502202FB0100DFF8EC180968085CDD
:1032600000280ED1DFF8E8080088401CDFF8E018DD
:103270000880DFF8D8080068401EDFF8D018086022
:10328000DDE7DFF8B808B0F90000DFF89C18086047
:10329000DFF8940800684F281DDADFF89008DFF89F
:1032A0009818B1F90010502211FB0200DFF87818CD
:1032B0000968085C00280ED1DFF898080088401CD7
:1032C000DFF890180880DFF860080068401CDFF81D
:1032D00058180860DCE7DFF86408B0F90000DFF890
:1032E0007418B1F9001008184E2803DB0120DFF82C
:1032F00068180880DFF85C08B0F900000D2834DB9E
:10330000DFF83808B0F90000DFF84818B1F900100C
:103310000818DFF834180860DFF81C08B0F900005E
:10332000DFF828180860DFF82408006806281CDB8E
:10333000DFF8F807DFF814180968502202FB0100D3
:10334000DFF804180968085C00280ED1DFF80C08C3
:103350000088401CDFF804180880DFF8F0070068D8
:10336000401EDFF8E8170860DDE70A20DFF8B41731
:103370000860DFF8B00700683B2880F2E78014207F
:10338000DFF8A4170860DFF8A00700683B2880F288
:10339000C980DFF89807DFF88C170968502202FB14
:1033A0000100DFF884170968085C002840F0B2804B
:1033B000DFF87807DFF86C170968502202FB01007C
:1033C000DFF864170968081810F8500C002840F05E
:1033D000A180DFF85807DFF84C170968502202FB7C
:1033E0000100DFF844170968081890F85000FF281A
:1033F00040F09080DFF83407DFF828170968502282
:1034000002FB0100DFF820170968081810F80A0C01
:10341000FF2840F07F80DFF81407DFF808170968FD
:10342000502202FB0100DFF8001709680818807AB3
:10343000FF286FD1DFF8F0060068283802F04AFA5A
:103440000A2867DADFF81807B0F90000002861D110
:10345000DFF8D4060068DFF80C1708800020DFF8DA
:10346000E8160860DFF8E00600681E2838DADFF8A2
:10347000BC06DFF8B0160968502202FB0100DFF835
:10348000E416B1F90010DFF8C0261268891A08188E
:1034900090F85000FF2823D1DFF89006DFF884165B
:1034A0000968502202FB0100DFF8B816B1F90010DC
:1034B000DFF8942612685118081890F85000FF2879
:1034C0000ED1DFF8A4060088401CDFF89C160880A7
:1034D000DFF874060068401CDFF86C160860C1E76E
:1034E000DFF8840600881F280CDBDFF83806006848
:1034F000DFF878160880DFF830060068DFF870160D
:1035000008800FE00020DFF8641608800020DFF854
:1035100060160880DFF810060068401CDFF8081607
:10352000086030E7DFF84406B0F90000002805D055
:10353000DFF83C06B0F90000002807D1DFF8E40509
:103540000068401CDFF8DC15086012E7DFF81C0695
:10355000B0F90000002800F08080DFF81406B0F910
:103560000000002879D0DFF80406B0F90000DFF889
:10357000B4150860DFF8AC05006802286DDB052093
:10358000DFF8A4150860DFF8A00500684B285CDAB6
:10359000DFF89805DFF88C150968502202FB01005E
:1035A000DFF884150968085C002846D1DFF87C053F
:1035B000DFF870150968502202FB0100DFF868157A
:1035C00009680818B0F522700078002835D1DFF8B6
:1035D0005C05DFF850150968502202FB0100DFF896
:1035E000481509680818B0F51E700078002824D125
:1035F000DFF83805DFF82C150968502202FB0100BE
:10360000DFF824150968081890F87802002814D10A
:10361000DFF81805DFF80C150968502202FB0100DD
:10362000DFF804150968081890F88802002804D10A
:103630000120DFF84015088007E0DFF8EC0400689F
:10364000401CDFF8E41408609DE7DFF8D804006848
:10365000401EDFF8D01408608CE7DFF81005B0F9E1
:1036600000000128C0F27B81DFF80405B0F90000FA
:103670000128C0F27481DFF8FC040088002800F003
:103680006E81DFF8AC04B0F90000DFF8AC14B1F9DA
:103690000010401A02F01EF9142880F26081DFF851
:1036A0009804B0F90000DFF88814B1F90010081888
:1036B000022190FBF1F0DFF8B414B1F90010401AC8
:1036C00002F008F91E2880F24A81DFF87004B0F990
:1036D0000000DFF86014B1F900100818022190FB17
:1036E000F1F0DFF88C14B1F90010401A02F0F2F892
:1036F0000A2880F23481DFF83C04B0F90000DFF8DA
:103700003C14B1F90010884280F22981DFF8680486
:10371000B0F90000002840F02281DFF86004B0F921
:103720000000002840F01B81DFF8540400880028C6
:1037300040F01581DFF8180BB0F90000002840F0C8
:103740000E81DFF8100BB0F90000002840F007816F
:10375000DFF8040B00882D2880F20181DFF8FC0AD5
:10376000B0F90000002840F0FA80DFF8F40AB0F960
:103770000000002840F0F380DFF8C803B0F9000033
:10378000002800F0EC80DFF8D003B0F9000000283A
:1037900000F0E580DFF8C00A0088D0F13A00DFF8D9
:1037A000841308600020DFF880130860DFF87803D6
:1037B0000068272836DADFF87403DFF86813096831
:1037C000502202FB0100DFF860130968401A90F8EC
:1037D0002800002826D1DFF85403DFF848130968D1
:1037E000502202FB010090F8280000281AD1DFF8CF
:1037F0003C03CC490968502202FB0100CA49096810
:10380000081890F8280000280CD1DFF8580A008822
:10381000401CDFF8501A0880C3480068401CC249A9
:103820000860C3E7DFF8300A0088D0F13900BD49ED
:1038300008600020BC490860BB480068272830DACF
:10384000BA48B8490968502202FB0100B649096824
:10385000401A90F82800002823D1B448B1490968DB
:10386000502202FB010090F82800002819D1AF482F
:10387000AC490968502202FB0100AB4909680818ED
:1038800090F8280000280CD1DFF8DC090088401CE3
:10389000DFF8D4190880A4480068401CA2490860D9
:1038A000CAE7DFF8C009008806284FDBDFF8B8094F
:1038B00000880B284ADBA048B0F900109C48B0F9FA
:1038C0000000FFF7FDF9974908609648006837281F
:1038D00026DADFF898099349096810EB810050F85F
:1038E000040CDFF888198F4A126851F822108842B8
:1038F0000FDBDFF87C098B49096850F82100DFF8FD
:103900007019884A126811EB820151F8041C884230
:1039100000DA05E083480068401C82490860D4E76B
:1039200080480068372808D10120DFF8481908804E
:1039300001210F2002F029F81DE00020DFF83419E2
:10394000088000210F2002F020F814E000210F2051
:1039500002F01BF80020DFF81C1908800BE00021A2
:103960000F2002F012F80020DFF80C190880002068
:10397000DFF800190880DFF804090088002857D014
:10398000DFF8FC08B0F900000A2805DADFF8F408CF
:10399000B0F900000D280BDADFF8E808B0F90000F4
:1039A000102845DBDFF8D808B0F9000003283FDA1B
:1039B0006048B0F900006E49B1F90010884237DA6A
:1039C0006B48B0F900005D49B1F9001088422FDA68
:1039D0006648B0F9000001282ADB6548B0F900000C
:1039E000012825DB63480088002821D0DFF88408FF
:1039F000008800281CD1DFF85808B0F90000002822
:103A000016D1DFF85008B0F90000002810D1DFF817
:103A1000480800882D280BDADFF86C08B0F90000A0
:103A2000002805D1DFF86408B0F90000002854D060
:103A3000DFF848080088002853D1DFF84808B0F9BB
:103A400000000A2805DADFF83808B0F900000D2870
:103A50000BDADFF82C08B0F90000102841DBDFF8A2
:103A60002408B0F9000003283BDA3248B0F900001E
:103A70003F49B1F90010884233DA3C48B0F9000000
:103A800001282EDB3A48B0F90000012829DB39482B
:103A90000088002825D0DFF8DC070088002820D126
:103AA000DFF8AC07B0F9000000281AD1DFF8A4074E
:103AB000B0F90000002814D1DFF89C0700882D28F9
:103AC0000FDADFF8C407B0F90000002809D1DFF8E9
:103AD000BC07B0F90000002803D10120DFF8B017BF
:103AE0000880DFF8AC070088012819D1DFF8A407A7
:103AF0000088022807DBDFF89C070088401EDFF8FB
:103B0000941708800CE0DFF88C070088012807D1A3
:103B10000020DFF87C1708801E20DFF87817088067
:103B200001BD00006C14FF1F7014FF1F8020FF1FD9
:103B30005634FF1F5834FF1F5A34FF1F5C34FF1FD9
:103B40006434FF1F6C34FF1F7414FF1F7814FF1FB1
:103B50006834FF1F6634FF1F6E34FF1F6A34FF1F77
:103B6000AC34FF1F6234FF1FC234FF1F5E34FF1FDF
:103B70006034FF1FD834FF1FA834FF1FAA34FF1F73
:103B8000E834FF1F80B5DFF8FC06B0F900000A2812
:103B900080F22983DFF8E806B0F900000A2880F2F5
:103BA0002283DFF8F40600880F2880F21C83DFF8F8
:103BB000EC06D0F8B400002840F01583DFF8E006EA
:103BC000D0F8B400002840F00E83DFF8D006D0F81B
:103BD000A000002840F00783DFF8C406D0F8A0005A
:103BE000002840F00083DFF8B406D0F88C000028ED
:103BF00040F0F982DFF8A806D0F88C00002840F0E9
:103C0000F282DFF8A006B0F90000002840F0EB8255
:103C1000DFF89406B0F90000002840F0E482DFF8F5
:103C20008C06B0F90000002840F0DD82DFF8800645
:103C3000B0F90000002840F0D682DFF84C06B0F959
:103C40000000002840F0CF82DFF84006B0F9000005
:103C5000002840F0C8820120DFF85816088037207D
:103C6000DFF854160860DFF85006006815287ADB84
:103C7000DFF84806B0F9000000286CD1DFF8EC0549
:103C8000DFF83416096850F82100C01EDFF830163E
:103C90000860DFF82C060068DFF8D415DFF8182676
:103CA000126851F82210C91C88422BDADFF814067A
:103CB000DFF804160968502202FB0100DFF8001645
:103CC0000968085CFF2815D1DFF8F805DFF8E8156A
:103CD0000968502202FB0100DFF8E41509680818A2
:103CE0004078002806D1DFF8E0050088401CDFF8A6
:103CF000D8150880DFF8C8050068401CDFF8C0153B
:103D00000860C6E7DFF8C005B0F9000002281ADB3A
:103D1000DFF8B405B0F90000042814DADFF8AC05C8
:103D2000B0F90000052805DBDFF8A405B0F90000B4
:103D3000052808DA0120DFF8841508800020DFF864
:103D4000881508800FE00020DFF87015088000203B
:103D5000DFF874150880DFF860050068C01EDFF822
:103D6000581508607FE73720DFF84C150860DFF84A
:103D70004805006815282CDBDFF8F004DFF838155B
:103D8000096810EB810050F8040CDFF8E014DFF84C
:103D90002825126851F82210884211DBDFF8D00480
:103DA000DFF81415096850F82100DFF8C414DFF8B3
:103DB0000825126811EB820151F8041C884200DAD0
:103DC00007E0DFF8F4040068401EDFF8EC14086038
:103DD000CDE7DFF8E4040068142840F000820120F9
:103DE000DFF8F01408803720DFF8CC140860DFF823
:103DF000C80400680B2870DBDFF87404DFF8B8141F
:103E0000096810EB810050F8040CDFF86414DFF847
:103E1000A824126851F82210401A10F1050F4CDA4C
:103E2000DFF84C04DFF89014096850F82100DFF83F
:103E30004014DFF88424126811EB82014968401AAB
:103E400001F048FD032838DADFF82404DFF86814AD
:103E5000096850F82100DFF81814DFF85C241268B4
:103E600011EB82018968401A01F034FD032824DA3D
:103E7000DFF8FC03DFF84014096810EB810050F80C
:103E8000080CDFF8EC13DFF83024126851F8221028
:103E9000401A10F1050F10DADFF81C040068DFF893
:103EA00038140880DFF8C803DFF80C14096850F8EC
:103EB0002100DFF8281408800FE00020DFF8181434
:103EC00008800020DFF814140880DFF8EC03006895
:103ED000401EDFF8E413086089E7DFF8FC03B0F95F
:103EE0000000DFF8D4130860DFF8CC0300680B286B
:103EF00061DBDFF87C03DFF8C013096810EB810099
:103F000050F8040CDFF86813DFF8AC23126851F89E
:103F10002210401A062848DBDFF85403DFF8981314
:103F2000096850F82100DFF84813DFF88C23126885
:103F300011EB82014968401A01F0CCFC032834DA05
:103F4000DFF82C03DFF87013096850F82100DFF860
:103F50002013DFF86423126811EB82018968401A8C
:103F600001F0B8FC032820DAC148DFF84C130968D7
:103F700010EB810050F8080CBD49DFF83C231268B3
:103F800051F82210401A06280FDBDFF82C030068D6
:103F9000DFF84C130880B648DFF81C13096850F8A6
:103FA0002100DFF84013088005E0C3480068401E88
:103FB000C149086098E7DFF82803B0F9000000283D
:103FC00010D0C548B0F9000000280BD0C448B0F9A3
:103FD0000000C149B1F900100818022190FBF1F06E
:103FE000C1490880BC48B0F90000002809D1BC488C
:103FF000B0F9000000280AD0B048B0F9000000284D
:1040000005D00120934908800120B8490880372055
:10401000A9490860A84800680B2855DB9348A649C1
:10402000096810EB810050F8040C9049A24A12680C
:1040300051F82210401A06283ADB8C489E4909683C
:1040400050F8210089499C4A126811EB82014968A5
:10405000401A01F03FFC03282ADA8448964909688F
:1040600050F821008149944A126811EB8201896855
:10407000401A01F02FFC03281ADA7C488E4909689F
:1040800010EB810050F8080C78498B4A126851F8FF
:104090002210401A06280BDB8748006894490880E4
:1040A00072488549096850F82100924908800BE060
:1040B00000208F49088000208E4908807E480068D3
:1040C000401E7D490860A5E78948B0F900007A499B
:1040D0000860794800680B2853DB64487649096812
:1040E00010EB810050F8040C6049734A126851F8D3
:1040F0002210401A10F1050F3DDA5C486E4909683C
:1041000050F8210059496C4A126811EB8201496844
:10411000401A01F0DFFB03282DDA5448664909688C
:1041200050F821005149644A126811EB82018968F4
:10413000401A01F0CFFB03281DDA4C485E4909689C
:1041400010EB810050F8080C48495B4A126851F89E
:104150002210401A10F1050F0DDA57480068DFF8F9
:104160000C1C088041485449096850F82100DFF8C8
:10417000001C088005E050480068401E4E49086059
:10418000A7E7DFF8E80BB0F90000002812D0584884
:10419000B0F9000000280DD0DFF8D00BB0F9000016
:1041A0005349B1F900100818022190FBF1F0DFF833
:1041B000C41B0880DFF8B40BB0F900004C49B1F91A
:1041C0000010884243DA3D48B0F9000000283ED094
:1041D00001201F49088001204449088037E0002061
:1041E0003C49088033E000203A49088000203149EA
:1041F000088000203D4908800020164908800020E2
:10420000354908800020354908800020344908805D
:1042100000203449088000200D49088000203449DE
:1042200008800020334908800020DFF8401B088008
:104230000020DFF83C1B08800020DFF83C1B0880D2
:104240000020DFF8381B088000201C49088001BDD1
:104250008834FF1F8A34FF1FBE34FF1F4A34FF1FFC
:104260004C34FF1FC434FF1FC634FF1F4C17FF1F01
:104270004018FF1FCA34FF1FD234FF1FFA33FF1F3D
:104280002034FF1F1E34FF1FF034FF1FF234FF1FC6
:10429000D034FF1F6404FF1FBC34FF1F7C14FF1FBA
:1042A0006C15FF1F2C34FF1F2E34FF1F3234FF1FED
:1042B0003034FF1FAA34FF1F6C14FF1FA434FF1FEC
:1042C0007014FF1F8020FF1FA634FF1F1034FF1F34
:1042D0000E34FF1FAC34FF1F9234FF1F9434FF1FB6
:1042E0008E34FF1F9034FF1F9634FF1F8C34FF1F46
:1042F0009C34FF1F9E34FF1F10B5DFF8000C0088B0
:10430000032800F06F83DFF8F80B00881E2880F286
:104310006983DFF8F00B0088002840F06383DFF842
:10432000E80B0088002840F05D83DFF8E00BD0F850
:10433000D800002840F05683DFF8D40BD0F8D8001E
:10434000002840F04F83DFF8CC0BB0F900000B28B9
:10435000C0F24883DFF8C00BB0F900000B28C0F2B0
:1043600041833220DFF8B41B0860DFF8B00B00682F
:104370000B2862DB0520DFF8A81B0860DFF8A00B24
:1043800000684B284BDADFF89C0BDFF8901B0968BC
:10439000502202FB0100DFF8881B0968085C002836
:1043A00035D1DFF8800BDFF8741B0968502202FB5F
:1043B0000100DFF86C1B0968081810F8500CFF2882
:1043C00025D1DFF8480BDFF8541B096810EB81009A
:1043D000806800281BD1DFF8340BDFF8401B096828
:1043E00010EB810050F8080C012810D1DFF82C0BDD
:1043F0000068DFF8341B0880DFF8240B0068DFF862
:104400002C1B08800120DFF8281B088007E0DFF85C
:10441000100B0068401CDFF8081B0860AEE7DFF8EF
:10442000100BB0F90000002807D1DFF8F00A00688F
:10443000401EDFF8E81A086097E73220DFF8DC1A40
:104440000860DFF8D80A00680B2862DB0520DFF877
:10445000D01A0860DFF8C80A00684B284BDADFF88A
:10446000C40ADFF8B81A0968502202FB0100DFF81D
:10447000B01A0968085C002835D1DFF8A80ADFF80F
:104480009C1A0968502202FB0100DFF8941A09689F
:10449000081890F85000FF2825D1DFF8740ADFF8DB
:1044A0007C1A096810EB8100806800281BD1DFF8B6
:1044B000600ADFF8681A096810EB810050F8080CF0
:1044C000012810D1DFF8540A0068DFF85C1B08806F
:1044D000DFF84C0A0068DFF8541B08800120DFF881
:1044E000501B088007E0DFF8380A0068401CDFF83E
:1044F000301A0860AEE7DFF8380BB0F9000000288A
:1045000007D1DFF8180A0068401EDFF8101A0860AB
:1045100097E7DFF81C0AB0F90000002800F0FE80E1
:10452000DFF80C0BB0F90000002800F0F780DFF88E
:10453000F809B0F90000DFF8F01AB1F90010401ADC
:1045400001F0C8F9142880F2E980DFF8E009B0F939
:104550000000DFF8D81AB1F90010884280F2DE803E
:10456000DFF8C409B0F90000DFF8B0190860DFF81F
:10457000AC090068102862DB0520DFF8A419086088
:10458000DFF89C0900684B284BDADFF89809DFF860
:104590008C190968502202FB0100DFF884190968B0
:1045A000085C002835D1DFF87C09DFF8701909684C
:1045B000502202FB0100DFF868190968081890F81A
:1045C0005000FF2825D1DFF84409DFF850190968A9
:1045D00010EB8100806801281BD1DFF83009DFF87B
:1045E0003C19096810EB810050F8080C002810D124
:1045F000DFF828090068DFF83C1A0880DFF8200996
:104600000068DFF8341A08800120DFF8301A0880CB
:1046100007E0DFF80C090068401CDFF804190860A7
:10462000AEE7DFF8180AB0F90000002807D1DFF87C
:10463000EC080068401EDFF8E418086097E7DFF830
:10464000E809B0F90000DFF8D4180860DFF8CC08FA
:104650000068102862DB0520DFF8C4180860DFF866
:10466000C00800684B284BDADFF8B808DFF8AC1850
:104670000968502202FB0100DFF8A4180968085CF1
:10468000002835D1DFF89C08DFF89018096850221F
:1046900002FB0100DFF888180968081890F850003C
:1046A000FF2825D1DFF86808DFF87018096810EBDB
:1046B0008100806801281BD1DFF85408DFF85C18FE
:1046C000096810EB810050F8080C002810D1DFF8C1
:1046D0004C080068DFF868190880DFF844080068B3
:1046E000DFF8601908800120DFF85C19088007E016
:1046F000DFF82C080068401CDFF824180860AEE7DB
:10470000DFF84409B0F90000002807D1DFF80C08F1
:104710000068401EDFF80418086097E7DFF810080B
:10472000B0F90000002800F05881DFF80409B0F962
:104730000000002800F05181DFF80009B0F9000006
:10474000002800F04A81DFF80009B0F900000028D5
:1047500000F04381DFF8DC08B0F90000DFF8E01872
:10476000B1F90010401A01F0B5F8142880F2358133
:10477000DFF8C408B0F90000DFF8C818B1F900107C
:10478000884280F22A81DFF8A407B0F90000DFF840
:10479000A818B1F90010401ADFF88C17B1F9001011
:1047A000DFF89028B2F90020891A90FBF1F000F0B0
:1047B0003FFDDFF898180860DFF87007B0F90000D7
:1047C000DFF87418B1F900100818022190FBF1F01D
:1047D00000F02EFD0400DFF85007B0F90000DFF80C
:1047E0005418B1F90010081800F022FDDFF85C1829
:1047F000096800F0C5FD5FF0804100F043FD010055
:10480000200000F029FEDFF848180860DFF81C08D7
:10481000B0F90000DFF82C18B1F90010401ADFF8E9
:104820000818B1F90010DFF81828B2F90020891A29
:1048300090FBF1F000F0FCFCDFF818180860DFF8DE
:10484000EC07B0F90000DFF8FC17B1F90010081808
:10485000022190FBF1F000F0EBFC0400DFF8C80748
:10486000B0F90000DFF8D817B1F90010081800F00F
:10487000DFFCDFF8E017096800F082FD5FF080419F
:1048800000F000FD0100200000F0E6FDDFF8C81791
:104890000860DFF89407B0F90010DFF88C06B0F973
:1048A0000000FEF70DFAC01CDFF8B0170880DFF833
:1048B000AC07B0F90000372804DB3620DFF89C177E
:1048C000088005E0DFF894070088DFF8901708807B
:1048D000DFF86C07B0F90010DFF85807B0F90000F6
:1048E000FEF7E6F9C01EDFF878170880DFF87007DA
:1048F000B0F900000F2804DA0F20DFF864170880F1
:1049000005E0DFF85C070088DFF854170880DFF85F
:104910004C07B0F90000DFF804160860DFF8400724
:10492000B0F90000DFF8F4150968884250DADFF8C2
:10493000EC05006800F07CFCDFF81017096800F057
:104940001FFDDFF80C17096800F0FAFD00F03AFED1
:10495000DFF81017DFF8C425126841F82200DFF8ED
:10496000BC05006800F064FCDFF8E816096800F098
:1049700007FDDFF8E416096800F0E2FD00F022FE12
:10498000DFF8E416DFF89425126841F82200DFF81A
:10499000D406DFF88815096850F82100DFF8C8163A
:1049A000DFF87825126851F822100818022190FBD0
:1049B000F1F0DFF8B816DFF86425126821F812006C
:1049C000DFF858050068401EDFF850150860A5E7BD
:1049D0000120DFF89C160880C7E10020DFF8901660
:1049E0000880C2E1DFF814050088032800F0B581D3
:1049F000DFF810050088002840F0AF81DFF80405DB
:104A00000088002840F0A981DFF8FC040088002815
:104A100040F0A381DFF85C060088002840F09D810B
:104A2000DFF8F004B0F900000B28C0F29681DFF83F
:104A3000E804B0F900000B28C0F28F81DFF8CC0445
:104A4000D0F8DC00012840F08881DFF8C404D0F8F9
:104A5000DC00012840F08181DFF8B004D0F8D400F8
:104A6000012840F07A81DFF8A804D0F8D4000128AA
:104A700040F07381DFF89404D0F8CC00012840F0B6
:104A80006C81DFF88C04D0F8CC00012840F06581FF
:104A90003220DFF888140860DFF8800400681528E9
:104AA0007CDB0520DFF878140860DFF87404006808
:104AB0004B2865DADFF86C04DFF8601409685022CF
:104AC00002FB0100DFF858140968085C00284FD188
:104AD000DFF85004DFF844140968502202FB01009B
:104AE000DFF83C140968081890F85000FF283FD1FF
:104AF000DFF83004DFF824140968502202FB0100BB
:104B0000DFF81C14096808184078FF2830D1DFF856
:104B10001404DFF808140968502202FB0100DFF8D2
:104B200000140968081890F85100FF2820D1DFF818
:104B3000F403DFF8E8130968502202FB0100DFF8F4
:104B4000E0130968081810F8510C002810D1DFF89C
:104B5000CC030068DFF8DC140880DFF8C4030068C9
:104B6000DFF8D41408800120DFF8D014088007E0B3
:104B7000DFF8AC030068401CDFF8A413086094E77A
:104B8000DFF8B804B0F90000002807D1DFF88C0383
:104B90000068401EDFF8841308607DE73220DFF8EC
:104BA0007C130860DFF874030068152871DB0520AA
:104BB000DFF86C130860DFF8680300684B285CDAE4
:104BC000DFF86003DFF854130968502202FB01008C
:104BD000DFF84C130968085C002848D1DFF844036B
:104BE000DFF838130968502202FB0100DFF83013A8
:104BF0000968081890F85000FF2838D1DFF824031E
:104C0000DFF818130968502202FB0100DFF81013C7
:104C10000968081810F8010CFF2828D1C148BF49BD
:104C20000968502202FB0100BD490968081890F884
:104C30004F00FF281BD1BB48B8490968502202FB2E
:104C40000100B7490968081810F84F0C00280ED168
:104C5000B2480068DFF8E8130880B1480068DFF860
:104C6000E41308800120DFF8E013088005E0AC4879
:104C70000068401CAA4908609DE7DFF8CC03B0F942
:104C80000000002805D1A5480068401EA34908601F
:104C900088E7DFF8A803B0F90000002858D0DFF853
:104CA000A803B0F90000002852D0DFF88803B0F95B
:104CB0000000DFF88C13B1F90010401A00F00AFE72
:104CC000142845DADFF87803B0F90010DFF8640340
:104CD000B0F90000FDF7ECFF801E904908608F4896
:104CE000006837282FDADFF884038C49096810EB55
:104CF000410030F8020CDFF87413884A126821F87A
:104D00001200DFF860038549096810EB810050F854
:104D1000040CDFF85013814A126841F82200DFF8D2
:104D200048037E49096810EB810050F8040CDFF855
:104D300038137A4A126841F8220078480068401C0B
:104D400076490860CBE70120DFF82C1308800CE0DF
:104D50000020DFF82413088007E00020DFF810139C
:104D600008800020DFF81013088010BD9834FF1F62
:104D70009A34FF1FA034FF1FA234FF1FEE34FF1F21
:104D800080B5BE48B0F9000000284AD0BC48008871
:104D90001438BB490880BB4800881430B9490880E2
:104DA000B748B0F90000052803DA0520B4490880A7
:104DB00003E0B3480088B2490880B248B0F9000067
:104DC000382803DB3720AF49088003E0AD4800886E
:104DD000AC490880AB48B0F9000050490860A848C9
:104DE000B0F900004D490968884223DA9D484B49D3
:104DF000096850F821009C49A34AB2F9002051F8F3
:104E000022100818022190FBF1F00A389749434A12
:104E1000126821F8120041480068401E3F490860AE
:104E2000DDE7002096490880002096490880002090
:104E3000954908809548B0F90000002853D094485F
:104E400000881938924908809248008819309149A1
:104E500008808F48B0F90000052803DA05208C4946
:104E6000088003E08A480088894908808948B0F9A9
:104E70000000382803DB37208649088003E0854896
:104E80000088844908808348B0F9000023490860FD
:104E90007F48B0F900002149096888421ADA72484F
:104EA0001E49096850F821006E497B4AB2F900207A
:104EB00051F822100818022190FBF1F00B306B49D9
:104EC000164A126821F8120014480068401E13495F
:104ED0000860DDE7714801685FF07E5000F050FA2D
:104EE0006F49086008E0002069490880002069498E
:104EF000088000206849088001BD0000E034FF1FE1
:104F0000BC34FF1FC834FF1FD034FF1F7C14FF1FA9
:104F10006C15FF1F2034FF1F1E34FF1F6C14FF1F72
:104F20007014FF1F8020FF1F3A34FF1F3C34FF1F07
:104F30004E34FF1FF8B55B48B0F90000012872D16C
:104F40005948B0F9000001286DD158480088002860
:104F500069D037205649086055480068152822DB7B
:104F600040485349096810EB810050F8040C3D4952
:104F70004F4A126851F8221088420DDB3A484C49DA
:104F8000096850F821003849494A126811EB82013A
:104F900051F8041C884200DA05E045480068401ECC
:104FA00043490860D8E74248006814283BD11E20D6
:104FB0003F4908603E480068212834DA2A483C49C5
:104FC000096850F821002749394A126851F822101F
:104FD000401A00F07FFC00F073F802000B00140090
:104FE0001D003348006800F06BF80022314B00F0E0
:104FF0007BFB06000F003048B0F9000000F060F8BD
:1050000032003B0000F074F822002B0000F038FD65
:1050100003D201202949088005E025480068401C8A
:1050200023490860C6E7F1BD4234FF1F4434FF1F27
:105030005034FF1F3E34FF1F4034FF1F4A34FF1F10
:105040004634FF1F4834FF1F4C34FF1F4419FF1F15
:105050004819FF1F4C19FF1F5019FF1F5234FF1F23
:105060005434FF1F4C17FF1F4018FF1F5C16FF1F13
:10507000F034FF1FD834FF1FF234FF1F8A34FF1FA4
:105080008E34FF1F9234FF1F9634FF1F8834FF1F9A
:105090009834FF1F9C34FF1FA034FF1F2404FF1F00
:1050A0002004FF1FAA34FF1F6004FF1FFE33FF1FF1
:1050B0006C14FF1F0000F03F6204FF1FA834FF1FA5
:1050C000010040F10980F446404200F005F851F03B
:1050D00000416047010000BF09D0B0FA80F188406C
:1050E000C91CC1F58461090501EBD0214005704759
:1050F00070B44FF0004591EA030C44BF6B4000F0E0
:10510000E1BC00BF841A71EB030603D2001BB1415E
:10511000121973414FF4001C1CEB410F34BF7CEBA0
:10512000430443E00C0DA4EB1356352E50DC45EA46
:10513000C323DB0A45EAC121C912B6F120050DDD02
:1051400063FA05F6EB4086EA0305124218BF45F004
:105150000105C01851F100010CD213E062FA06F506
:10516000F2405540F3415A40B340F3405A40801852
:10517000594107D349085FEA30005FEA350528BF87
:1051800045F0010501F58011420875F1004250F12A
:10519000000041EB045170BC4FF4001C1CEB410FAC
:1051A00038BF70470020090D090570471CEB410FFF
:1051B00010D252EA43060BD0BCEB410F05D80C0DC0
:1051C000AB43661E342EB5DD02E0AB438018594177
:1051D00070BC704770BC7047F446400D40EAC12077
:1051E000490006D200F014F8004248BF6FF00040BA
:1051F000604700F00DF84FF0004188428CBF084630
:1052000040426047400D40EAC120490080F00D80D7
:1052100040F00040490DA1F58061491C05D4D1F151
:105220001F0154BFC840C01770474FF000007047BF
:10523000002840F10980F446404200F005F850F0A3
:1052400000406047002800BF0AD0B0FA80F18840D3
:10525000D1F19D01C905020672F1004241EB102017
:10526000704750F8041B61B150F8042BD30744BFBA
:10527000A9F101039A180023091F42F8043BFAD14F
:10528000EFE7704710B5FF2313EAD0541DBF13EAB0
:10529000D1529C429A4239E0A41ADA0780EA01030B
:1052A000134042EA012142EA0020421A3CBF641E38
:1052B00001EB4202090AB2FBF1FE01FB1E221202BF
:1052C000B2FBF1F001FB10226EF30F201202B2FBD1
:1052D000F1FE4EEA00207F3406DDFE2C24DA53EA8C
:1052E000500050EBC45010BDD4F1020401FB1E224B
:1052F00040F08071192C1DDC21FA04F0C4F1200467
:10530000A140114371F10042584110BD9C421ABFA7
:1053100003EAD1529A420FE080EA010E0EF00043F8
:10532000400004D0490016D143F0FF4010BD4900B1
:1053300008BFD343180010BD9C4205D1D21AF7D044
:1053400001F00041484010BD4A0212BF08464840E3
:1053500000F0004010BD4AB90902B1FA81F2914053
:1053600044B1A418C00140F000409EE7C90141F0DB
:10537000004152420002B0FA80F4A040141B94E7AE
:10538000FF2212EAD05C1DBF12EAD153944593422A
:105390002BE09C44D30780EA01021A4043EA002034
:1053A00043EA0121A1FB0030410038BF40007CF1FD
:1053B0007F010BDBFE294ADA5B0842EAC15153EA5E
:1053C000006373F1004C51EB10207047D1F1080CD1
:1053D000DCF120012FDB5B0810FA01F10B4373F1C4
:1053E000004120FA0CF05041704794451CBF02EA7E
:1053F000D153934280EA010202F000421DD04000E6
:1054000019D0490017D05BB9634514D00902B1FA2D
:1054100081F39940BCEB030CC00140F00040C1E7B0
:105420000002B0FA80FC10FA0CF0B3EB0C0CC901CE
:1054300041F00041B6E71000704740000AD0490033
:1054400008D010F1807F94BF11F1807F02E042F01C
:10545000FF407047D043704790EA010F44BF81F08E
:10546000004100F075B800BF431A4FF000423EBF44
:105470005340C01AC91800BFD3095FEAD05C13EBD0
:10548000400F34BFB3EB410F40E07CEBD1530CD362
:1054900042EA012122D8D1EB402009D3400A28BF9B
:1054A0005FEA500140EBCC507047401A15D04002E3
:1054B000B0FA80F2521C9040400A4FEA3C23B3EB12
:1054C000026384BF00EB730007E040F400001A168B
:1054D000DB07C2F10102D04018437047182BFCDCF7
:1054E00031FA03F202FA03F3591A38BF42F001020B
:1054F000D2EB40203CBF4000ACF1010C5FEACC5C39
:10550000C20572F100414CEB5020704713EB400F85
:105510000FD24B0009D0ACEBD153022B03DB490275
:10552000172BDDDD70479143401A4300D5D1002091
:10553000704713EB410FD0D36FF000007047FF00AE
:1055400090EA010F44BF81F00041FFF78DBF00BF1B
:10555000421A3CBF801A89184FF0004CC0F3C75262
:10556000FF2A24D0C1F3C75313B3D21AD2F11903BF
:1055700027DD4CEA01214CFA03F321EA0303D14071
:10558000C20D4CEA0020401834BF20EA0C004CEA5F
:105590005000D20553EA006373EB0C0C52EB102061
:1055A000420012F1807F38BF7047C00DC0057047C0
:1055B000490212BF9A4200EB5120F8E7D2F11703DB
:1055C000D9D570474100090E7F3915D4D1F11F019B
:1055D00014D4400007D2C00140F00040C84048BF8A
:1055E0006FF000407047C00140F00040C8404CBF21
:1055F0004FF00040404270470020704700424FF09B
:10560000004058BFC04370475FF0FF0C1CEAD05108
:1056100014BF614506E0C110400721F0E04101F1EF
:105620006051704779B900F0004100020AD0B0FA29
:1056300080FC00FA0CF001F16051A1EB0C5101EB80
:10564000D0214005704741020CBF40F4E0016FF0EB
:1056500000010020704700004FEAF17CBCF1E04CF3
:105660002CBFBCF5001F11E05FEA4C0C34BFBCF14D
:105670007F5F2EE05FEA9C0C4FEA0C1C4FEA3C0C6B
:10568000C10071F100414CEB50707047C90241EA12
:105690005051C00218BF41F0010141F000414FEAF2
:1056A0006C50C0F10900212810D240EACC7CCCF12A
:1056B000200C11FA0CF070F10040CCF1200C21FA12
:1056C0000CF00CF0004C40EB0C0070474FEACC7033
:1056D0007047490011F5001F04D84FEACC10FF3085
:1056E000C0057047C8177047B0B581EA030C0CF0CD
:1056F000004C40F2FF7515EA11541DBF15EA13570F
:10570000AC42AF4239E0E41923EA455343F4801335
:10571000C90241F0004141EA505EC7021100A7FBF7
:10572000020200284FF00000EEFB01204FF00001C4
:10573000E3FB072118BF42F0010240180021494154
:10574000E3FB0E01A4F580640F0302D25200404136
:10575000494154F101046CDD470872F1004250F1F7
:10576000000051EB0451A1F580115CBF41EA0C012E
:10577000B0BD4CEA05510020B0BD05EA1357AC425C
:1057800014BFAF4241E050EA410E1CBF52EA430E43
:1057900002E061460020B0BD24423C441BD15FEAD8
:1057A000070EF6D0090302BF01460020AEF1140E29
:1057B000B1FA81F7AEEB070401FA07FE0C37C7F127
:1057C000200100FA07F7C8404EEA000E23EA4553CD
:1057D00043F48013A2E733F00043B3FA83F704BF26
:1057E000B2FA82FE77440B3FE41BB7F1200E2FBFC5
:1057F00002FA0EF3BB40C7F1200E22FA0EFE38BFAC
:1058000043EA0E03BA40641C82E750EA410E14BF1B
:1058100052EA430E6FF000014FF4001717EB430FED
:105820008ABF194617EB410FB5E74CEA0551002036
:10583000B0BDD4F10104B4F120070FDAC4F12007A0
:10584000520828BF42F0010210FA07F501FA07F7E3
:10585000E1BF2A43E0403843E1400FE0352C98DCBB
:10586000C7F1200452EA400220FA07F218BF42F0C2
:10587000010231FA07F0A1400A43002172F100420F
:1058800050F1000051EB0C01B0BD00004FF0807CE6
:105890001CEB400F94BF1CEB410F05E040EA010CEC
:1058A0005FEA4C0C01D28142704718BF88427047B2
:1058B0004FF0807C1CEB400F94BF1CEB410F05E0C8
:1058C00040EA010C5FEA4C0C01D28842704718BFD5
:1058D00081427047002848BF4042704770B50400BD
:1058E0000D0016004FF480712000C0B200F0A0F946
:1058F0006DB2002D11D16048E4B2611150F8210061
:105900005D49E4B2621151F822104969012214F094
:105910001F039A409143416136E05748E4B2611158
:1059200050F821005449E4B2621151F8221049693B
:10593000012214F01F039A4011434161F6B2002E78
:1059400011D14D48E4B2611150F8210000680121E5
:1059500014F01F02914088434749E4B2621151F8A4
:105960002210086010E04448E4B2611150F82100B0
:105970000068012114F01F02914008433E49E4B23F
:10598000621151F82210086070BD38B504000D0096
:105990003948E4B2611150F82100406914F01F0148
:1059A0000200CA40D00703D46321344800F0ADF9A7
:1059B000EDB2002D11D13048E4B2611150F8210050
:1059C0000068012114F01F02914088432A49E4B283
:1059D000621151F82210086010E02748E4B261110A
:1059E00050F821000068012114F01F029140084383
:1059F0002149E4B2621151F82210086031BD10B59E
:105A000004001D48E4B2611150F82100406914F00F
:105A10001F010200CA40D00703D47B21174800F0C1
:105A200074F91548E4B2611150F82100012114F015
:105A30001F029140C16010BD10B504000E48E4B2D1
:105A4000611150F82100406914F01F010200CA40A2
:105A5000D00703D58C21094800F057F90648E4B275
:105A6000611150F82100006914F01F010200CA40C2
:105A700012F0010010BD00004010FF1FCCEE00002E
:105A80004FF4001C1CEB410F94BF1CEB430F09E0CB
:105A900041EA030C50EA4C0C52EA0C0C03D2994236
:105AA00008BF9042704714BF8B428242704700008B
:105AB00070B44FF0004591EA030F44BF6B40FFF70D
:105AC00021BB00BF841A71EB030604D26E40001B99
:105AD000B141121973414FF4001C1CEB410F34BF4C
:105AE0007CEB430684E00C0DA4EB1356362E7DDCD4
:105AF000012E43DC45EAC32343EA525312BFD202CC
:105B000092025B08240545EAC12141EA5051D2EBDB
:105B1000C020994125D407D1B0FA80F610FA06F1D9
:105B200064D00020203608E0B1FA81F6B140C6F119
:105B3000200220FA02F21143B0404FEAF474B4EBB1
:105B4000465434F001064FEA74040AD8D6F500161C
:105B5000760D04F00044F04061FA06F25040F14046
:105B60004840C00A40EA415021F0004128BF5FEAA6
:105B7000500550F1000044EBD12137E045EAC32342
:105B8000DB0A45EAC121C90AB6F120050EDD42EA69
:105B90000242120CC5F1200603FA06F6EB4042EA77
:105BA00006056D42984161F100010DE062FA06F5CB
:105BB000F240554063FA06FC82EA0C02F3405A4078
:105BC0006D42904161EB030111F4801F05D1641E09
:105BD000620502D06D004041494121F48011430823
:105BE00075F1004350F1000041EB045170BC704767
:105BF0001CEB410F15D223F0004352EA43060BD0B1
:105C00004FEA4C0CBCEB410F04D80C0D661E342E31
:105C1000B7DDEBE7801A994150EA410608BF002141
:105C2000E4E708BF1CEB430F28BF6FF00001DDE77E
:105C300010B4294A12684FF40073C0B24409A3405B
:105C40001A43254B1A60254AC0B2431152F823204B
:105C5000012310F01F04A340C2F8A0301F4AC0B2B5
:105C6000431152F82320C0B210F01F0342F8231052
:105C700010BC704710B4184A12684FF40073C0B2D9
:105C80004409A3401A43144B1A60144AC0B243118A
:105C900052F82320012310F01F04A340C2F8A030C3
:105CA00031F4E0610D4AC0B2431152F82320C0B272
:105CB00010F01F0352F8232012F4E0621143074A48
:105CC000C0B2431152F82320C0B210F01F0342F8B3
:105CD000231010BC7047000038800440A410FF1F40
:105CE000DFF800F0B911FF1FDFF800F0E911FF1F26
:105CF000BFF34F8F4548006810F4E0604449084303
:105D000042490860BFF34F8FFEE738B504000D002D
:105D10005FF4E131002000F089F83E49002000F0F6
:105D20009CF94FF47A7000F0D0F9F6E738B504002A
:105D30000D00210049B2002000F082F9200032BDA0
:105D400010B50024042000F0D7F9042000F00AFA6E
:105D5000002841D1002000F01DFA042000F002FAD2
:105D6000012801D101200400002000F030FA2A4867
:105D700000F048FA4FF4FA7000F0A7F9E4B2012CF1
:105D8000EBD1042000F0EEF90028E6D1042000F069
:105D9000E9F9002806D1002000F019FA642000F08B
:105DA00094F9F3E7042000F0DDF9012806D1002082
:105DB00000F00DFA322000F088F9F3E7174800F000
:105DC00021FAFFF78DFF642000F07FF90020FFF734
:105DD0008BFFFFF78DFFC0E710BD10B510480468BA
:105DE000012000F0D7F9012000F0F1F90D48E4B2EC
:105DF0000F2101FB0402E4B221000B4800F002FA7B
:105E00004FF47A7000F061F9EDE700000CED00E06E
:105E10000400FA059CF40000ACF20000C0F10000A0
:105E200004ED00E02C09FF1F04F100002DE9F84308
:105E300004000D0064B2002C08D0022C2CD018D322
:105E4000042C4FD03BD3052C5FD071E0DFF82C023F
:105E5000006850F48060DFF8241208604FF440714D
:105E60000F20FFF7E5FE4FF440710E20FFF7E0FE34
:105E70005EE0DFF80802006850F40060DFF8FC1113
:105E800008604FF440714320FFF7D2FE4FF4407199
